:0325640002256AE3
:0325C30002256787
:032567000227B890
:1025C600AF83E582900001F0EFA3F03099FD3099DA
:1025D600FDE59830E1FB900001E0FEA3E08E99C294
:1025E60099900000223098FDE59830E0FB109802A3
:1025F60080FBAE997F008E828F8322AFF0AE83E59B
:1026060082900003F0EEA3F0EFA3F0900003E0FD4C
:10261600A3E0FEA3E0FF7B007C008D828E838FF01B
:10262600122AC4FA60360DBD00010E900003EDF0CB
:10263600EEA3F0EFA3F08A017A0089828A83C007AD
:10264600C006C005C004C0031225C6D003D004D0FE
:1026560005D006D0070BBB00C10C80BE900003ED71
:10266600F0EEA3F0EFA3F00BBB00010C8B828C8382
:102676002290000075F00012299F90000075F0006E
:1026860002287F740314B400FC22C294C295D2952A
:10269600D294022689C295122689C294022689C23C
:1026A60095D294122689D295022689AF83E5829027
:1026B6000006F0EFA3F07E007F00C3EE9408EF64FF
:1026C6008094805057900006E0FCA3E0EC30E713BE
:1026D600D295D294C007C006122689D006D007C26A
:1026E600948011C295D294C007C006122689D006DE
:1026F600D007C294C007C006122689D006D007901C
:102706000006E0FCA3E0FDEC2CFCED33FD9000069A
:10271600ECF0EDA3F00EBE00A10F809ED29500D284
:1027260094A295E433FE7F00C007C006122689D026
:1027360006D007C2948E828F8322900008E4F0A30D
:10274600F0D2957E007F00C3EE9408EF64809480FB
:102756005048900008E0FCA3E0FDEC2CFCED33FDB6
:10276600900008ECF0EDA3F0D294C007C006122644
:1027760089900008E0FCA3E0FDA295E433FA7B0013
:10278600900008EA4CF0EB4DA3F0C294122689D0D3
:1027960006D0070EBE00B00F80ADD294122689D2A5
:1027A60095C294122689900008E0FEA3E08E82F579
:1027B600832212269012269B9000A01226B1122682
:1027C600899000011226B11226899000611226B165
:1027D6001226891226A57EE87F03EE4F6012C007F7
:1027E600C006122689D006D0071EBEFF011F80EA4A
:1027F60090000A7401F0E4A3F090000AE0F5F0A35B
:10280600E045F06021D294C295122689C2949000C8
:10281600A01226B1E5828583F090000AF0E5F0A3C8
:10282600F012268980D31226A5D294C29512268943
:10283600C2949000A01226B1122689900001122699
:10284600B1122689D294C295122689C2949000A10B
:102856001226B11227401225C61226A57EE87F034E
:10286600EE4F70030227B8C007C006122689D006AD
:09287600D0071EBEFF011F80E720
:06259900E478FFF6D8FD16
:10287F00AFF0AE83E58290000CF0EEA3F0EFA3F083
:10288F0090000FE4F0A3F090000CE0FDA3E0FEA396
:10289F00E0FF8D828E838FF0122AC4FCBC20028051
:1028AF0003BC09120DBD00010E90000CEDF0EEA35C
:1028BF00F0EFA3F080DC90000CEDF0EEA3F0EFA3AF
:1028CF00F08D828E838FF0122AC4FC900011E4BC2D
:1028DF002D0104F0BC2D028003BC2B0E90000C7454
:1028EF00012DF0E43EA3F0EFA3F090000CE0FDA368
:1028FF00E0FEA3E0FF8D828E838FF0122AC4FCBC12
:10290F003000405DEC24C6405890000FE0FBA3E080
:10291F00FC900018EBF0ECA3F090000AC007C00683
:10292F00C005122AA4AB82AC83D005D006D0078D88
:10293F00828E838FF0122AC4FAA3AD82AE839000E9
:10294F000CEDF0EEA3F0EFA3F08A017A00E924D0AA
:10295F00F9EA34FFFA90000FE92BF0EA3CA3F0807C
:10296F009490000CEDF0EEA3F0EFA3F0900011E0C7
:10297F00601190000FE0FEA3E0FFC3E49EFEE49F12
:10298F00FF800890000FE0FEA3E0FF8E828F83226E
:102577007900E94400601B7A00902AE4781A75A074
:1025870000E493F2A308B8000205A0D9F4DAF275C3
:02259700A0FFA3
:10299F00AFF0AE83E582900012F0EEA3F0EFA3F05C
:1029AF00900015E4F0A3F01225EBAE82AF83BE08C2
:1029BF0002800DBE0A02805FBE0D02805A022A4EAF
:1029CF00900015E0FDA3E0FF900015E0F5F0A3E007
:1029DF0045F060D3900008C007C0051225C69000CF
:1029EF00201225C69000081225C6D005D0079000EA
:1029FF0012E024FFFAA3E034FFFBA3E0FC900012E7
:102A0F00EAF0EBA3F0ECA3F01DBDFF011F90001542
:102A1F00EDF0EFA3F0809090000D1225C690000A04
:102A2F001225C6900012E0FCA3E0FDA3E0FF8C820C
:102A3F008D838FF0E4122A898C828D838FF0229000
:102A4F000012E0FCA3E0FDA3E0FF8C828D838FF0EA
:102A5F00EE122A8990001274012CF0E43DA3F0EFDE
:102A6F00A3F0900015E02401F0A3E03400F07F0004
:102A7F008E828F831225C60229B620F71130F613E6
:102A8F008883A88220F509F6A8837583002280FE2B
:102A9F00F280F5F022AA83AB828BF0900018E0A4AD
:102AAF00F8A9F08AF0E0A429F98BF0A3E0A429F5A6
:052ABF00838882222241
:10259F007800E84400600A790175A000E4F309D8D7
:1025AF00FC7819E84400600C7901900001E4F0A375
:0425BF00D8FCD9FA71
:0D256A00758107122AE0E5826003022567F3
:102AC40020F71430F6148883A88220F507E6A8833B
:102AD40075830022E280F7E49322E02275820022CB
:00000001FF
