:2025C600AFF0AE83E582900001F0EEA3F0EFA3F0900001E0FDA3E0FEA3E0FF8D828E838F1A
:2025E600F012417AAE82AF83BE0105BF00028013BE0205BF00028030BE0305BF0002805C05
:202606000226A69000047430F0900005F0900001E0FBA3E0FCA3E0FD8B828C838DF01241E2
:2026260092FB900006F080789000047430F0900001E0FBA3E0FCA3E0FD8B828C838DF0124B
:202646004192FA900005F00BBB00010C8B828C838DF0124192FB900006F08044900001E01B
:20266600FBA3E0FCA3E0FD8B828C838DF0124192900004F074012BF8E43CF98D0288828985
:20268600838AF0124192F8900005F074022BFBE43CFC8B828C838DF0124192FB900006F01E
:2026A600900008E4F0A3F07C007D00C3EC9403ED648094804003022C2BEC2404F582ED34A9
:2026C60000F583E0FB7A008B828A83C007C006C005C0041236E7AA82AB83D004D005D006EF
:2026E600D007C3EA9431EB648094805003022C23C374469A74808BF063F08095F0500302D1
:202706002C23EA24CFFA240A83F582EA241A83F583E4734599ED4195E93D91E52323232322
:20272600232323398DE13589D72727272828282929292C2C2C2C2C2C2C2A2A2A2B2B2BEC67
:202746004D7012900008E0FAA3E0FB900008EAF074012BA3F08C028D03BC0116BD001390BE
:202766000008E0F8A3E0F9900008741028F0E439A3F0BA0205BB00028003022C2390000829
:20278600E0FAA3E0FB90000874012AF0E43BA3F0022C23EC4D7012900008E0FAA3E0FB9076
:2027A6000008EAF074022BA3F08C028D03BC0116BD0013900008E0F8A3E0F9900008742024
:2027C60028F0E439A3F0BA0205BB00028003022C23900008E0FAA3E0FB90000874022AF0C1
:2027E600E43BA3F0022C23EC4D7012900008E0FAA3E0FB900008EAF074032BA3F08C028D63
:2028060003BC0116BD0013900008E0F8A3E0F9900008743028F0E439A3F0BA0205BB00029E
:202826008003022C23900008E0FAA3E0FB90000874032AF0E43BA3F0022C23EC4D70129057
:202846000008E0FAA3E0FB900008EAF074042BA3F08C028D03BC0116BD0013900008E0F839
:20286600A3E0F9900008744028F0E439A3F0BA0205BB00028003022C23900008E0FAA3E07B
:20288600FB90000874042AF0E43BA3F0022C23EC4D7012900008E0FAA3E0FB900008EAF0ED
:2028A60074052BA3F08C028D03BC0116BD0013900008E0F8A3E0F9900008745028F0E4399D
:2028C600A3F0BA0205BB00028003022C23900008E0FAA3E0FB90000874052AF0E43BA3F040
:2028E600022C23EC4D7012900008E0FAA3E0FB900008EAF074062BA3F08C028D03BC01163B
:20290600BD0013900008E0F8A3E0F9900008746028F0E439A3F0BA0205BB00028003022C92
:2029260023900008E0FAA3E0FB90000874062AF0E43BA3F0022C23EC4D7012900008E0FA22
:20294600A3E0FB900008EAF074072BA3F08C028D03BC0116BD0013900008E0F8A3E0F9900B
:202966000008747028F0E439A3F0BA0205BB00028003022C23900008E0FAA3E0FB900008C3
:2029860074072AF0E43BA3F0022C23EC4D7012900008E0FAA3E0FB900008EAF074082BA332
:2029A600F08C028D03BC0116BD0013900008E0F8A3E0F9900008748028F0E439A3F0BA0264
:2029C60005BB00028003022C23900008E0FAA3E0FB90000874082AF0E43BA3F0022C23EC4E
:2029E6004D7012900008E0FAA3E0FB900008EAF074092BA3F08C028D03BC0116BD00139014
:202A06000008E0F8A3E0F9900008749028F0E439A3F0BA0205BB00028003022C2390000806
:202A2600E0FAA3E0FB90000874092AF0E43BA3F0022C23EC4D7012900008E0FAA3E0FB90CB
:202A46000008EAF0740A2BA3F08C028D03BC0116BD0013900008E0F8A3E0F990000874A0F9
:202A660028F0E439A3F0BA0205BB00028003022C23900008E0FAA3E0FB900008740A2AF016
:202A8600E43BA3F0022C23EC4D7012900008E0FAA3E0FB900008EAF0740B2BA3F08C028DB8
:202AA60003BC0116BD0013900008E0F8A3E0F990000874B028F0E439A3F0BA0205BB00027C
:202AC6008003022C23900008E0FAA3E0FB900008740B2AF0E43BA3F0022C23EC4D701290AD
:202AE6000008E0FAA3E0FB900008EAF0740C2BA3F08C028D03BC0116BD0013900008E0F88F
:202B0600A3E0F990000874C028F0E439A3F0BA0205BB00028003022C23900008E0FAA3E058
:202B2600FB900008740C2AF0E43BA3F0022C23EC4D7012900008E0FAA3E0FB900008EAF042
:202B4600740D2BA3F08C028D03BC0116BD0013900008E0F8A3E0F990000874D028F0E43972
:202B6600A3F0BA0205BB00028003022C23900008E0FAA3E0FB900008740D2AF0E43BA3F095
:202B8600022C23EC4D7012900008E0FAA3E0FB900008EAF0740E2BA3F08C028D03BC011690
:202BA600BD0013900008E0F8A3E0F990000874E028F0E439A3F0BA0264BB0061900008E0EB
:202BC600FAA3E0FB900008740E2AF0E43BA3F0804CEC4D7012900008E0FAA3E0FB90000882
:202BE600EAF0740F2BA3F08C028D03BC0116BD0013900008E0F8A3E0F990000874F028F0F3
:202C0600E439A3F0BA0216BB0013900008E0FAA3E0FB900008740F2AF0E43BA3F00CBC00BF
:202C2600010D0226B1BE0305BF0002800E900008E0FEA3E07F008E828F8322900008E0FE60
:072C4600A3E08E82F583225A
:202C4D00E58290000CF0122FBD90000CE0FE7F008E828F83C007C006122FC7122F7A90007B
:202C6D000AE0FD7C008D828C83122FC7122F7A90000BE0FD7C008D828C83122FC7122F7A2E
:202C8D00122F96122FA2D006D00790000D7401F0E4A3F090000DE0F5F0A3E045F0602CC0E1
:202CAD0007C006122FBDD006D0078E828F83C007C006122FC7E5828583F090000DF0E5F017
:202CCD00A3F0122F7AD006D00780C8022F96E582900010F0122FBD900010E0FF7E008F82DA
:202CED008E83C007C006122FC7122F7A90000FE0FD7C008D828C83122FC7122F7A122FBD8F
:202D0D00D006D0070FBF00010E8F828E83122FC7123071AE82AF83C007C006123065122F68
:202D2D0096122FA2D006D0078E828F8322E582900015F0122FBD9000FF122FC712306512D2
:202D4D002FBD122F96122FBD900015E0FF7E008F828E83C007C006122FC7122F7A90001190
:202D6D00E0FDFB7C008B828C83C005122FC7122F7A122FBDD005D006D0070FBF00010E8F62
:202D8D00828E83C005122FC7D005900013E0FEE4FFFCED4207EC4206900014E0FC7D00909A
:202DAD000012E07A004205EA4204C007C006C005C004C005C004C007C00674B2C0E074417C
:202DCD00C0E07480C0E0123770E58124F9F581D004D005D006D007EDC39FFAEC9EFBC00715
:202DED00C006C005C004C002C00374C9C0E07441C0E07480C0E0123770E58124FBF581D0A8
:202E0D0004D005D006D0077B00C3EF9DEE9C4003022EC98B01E9540F7056C007C006C0059F
:202E2D00C004C00374DCC0E07441C0E07480C0E0123770158115811581D003D004D005D05E
:202E4D0006D007C007C006C005C004C003C007C00674DFC0E07441C0E07480C0E01237708D
:202E6D00E58124FBF581D003D004D005D006D007C007C006C005C004C003123071A982AAC0
:202E8D0083C002C001123056D001D002D0030BC003C001C00274E4C0E07441C0E07480C0BF
:202EAD00E0123770E58124FBF581D003D004D005D006D0070FBF00010E022E16C007C00698
:202ECD00C003123071AC82AD83D003C005C004C003123065122F96D003D004D005D006D052
:202EED00070BEB540F7046C007C006C005C00474DCC0E07441C0E07480C0E0123770158171
:202F0D0015811581D004D005D006D007C005C004C007C00674E9C0E07441C0E07480C0E026
:202F2D00123770E58124FBF581D004D005C004C00574E4C0E07441C0E07480C0E012377004
:202F4D00E58124FBF58174DCC0E07441C0E07480C0E0123770158115811581122FBD900087
:0D2F6D00FF122FC7123065122FBD022F96E4
:2041B200537461727465723A20256420456E6465722025640A0D00646966666572656E63B1
:1B41D200652069732025640A0D000A0D002533583A00202558200025583A003C
:202F7A00740314B400FC22C294C295D295D294022F7AC295122F7AC294022F7AC295D294E5
:202F9A00122F7AD295022F7A7E207F03EE4F6012C007C006122F7AD006D0071EBEFF011F8B
:202FBA0080EA22D294C295122F7AC29422AF83E582900016F0EFA3F07E007F00C3EE940880
:202FDA00EF648094805057900016E0FCA3E0EC30E713D295D294C007C006122F7AD006D073
:202FFA0007C2948011C295D294C007C006122F7AD006D007C294C007C006122F7AD006D0D3
:20301A0007900016E0FCA3E0FDEC2CFCED33FD900016ECF0EDA3F00EBE00A10F809ED29559
:20303A0000D294A295E433FE7F00C007C006122F7AD006D007C2948E828F8322C295122F1E
:20305A007AD294122F7AC294D29522D294122F7AD295C294022F7A900018E4F0A3F0D295DD
:20307A007E007F00C3EE9408EF648094805048900018E0FCA3E0FDEC2CFCED33FD90001890
:20309A00ECF0EDA3F0D294C007C006122F7A900018E0FCA3E0FDA295E433FA7B009000189D
:2030BA00EA4CF0EB4DA3F0C294122F7AD006D0070EBE00B00F80AD900018E0FEA3E08E8276
:0330DA00F5832259
:0325640002256AE3
:0325C30002256787
:032567000232D06D
:2030DD00AF83E58290001AF0EFA3F03099FD3099FDE59830E1FB90001AE0FEA3E08E99C215
:2030FD0099900000223098FDE59830E0FB10980280FBAE997F008E828F8322AFF0AE83E537
:20311D008290001CF0EEA3F0EFA3F090001CE0FDA3E0FEA3E0FF7B007C008D828E838FF04F
:20313D00124192FA60360DBD00010E90001CEDF0EEA3F0EFA3F08A017A0089828A83C007B4
:20315D00C006C005C004C0031230DDD003D004D005D006D0070BBB00C10C80BE90001CED8E
:20317D00F0EEA3F0EFA3F00BBB00010C8B828C832290000075F0001235C290000075F0003B
:20319D000234A2AFF0AE83E582900021F0EEA3F0EFA3F0900021E0FDA3E0FEA3E0FF8D82BF
:2031BD008E838FF01225C6AE82AF83740E5FFDFB7C00C007C006C005C003C00474EDC0E0D4
:2031DD007441C0E07480C0E0123770E58124FBF581D005D006D007BD0800502D90006FE092
:2031FD004DF0E0FD7C00C007C006C005C00474FFC0E07441C0E07480C0E0123770E58124C7
:20321D00FBF581D006D00780069000707401F090420C75F080C00612311890000075F000AF
:20323D001235C290000075F0001225C6AD82D00690006FE0FF90000AEEF090000BEDF08F14
:20325D0082022C4DAFF0AE83E582900024F0EEA3F0EFA3F0900024E0FDA3E0FEA3E0FF8D55
:20327D00828E838FF01225C6AE82AF83740E5FFDBD0700500890006FE04DF0800690007024
:20329D007401F0900070E0600D90422775F08012311890FFFF2290006FE0FF90000FEEF01B
:2032BD008F82122CDBAE82AF83900070E4F08E828F8322122F81900070E4F090423E75F042
:2032DD0080123118123102AE82AF8390001FEEF0EFA3F08E828F831230DD9042D575F08073
:2032FD0012311890001FE0FEA3E0FF8E828F831236E7AE82AF83BE5205BF00028056BE53D7
:20331D0006BF00030233DABE5705BF0002800BBE5806BF000302348D809C9042D875F08007
:20333D00123118900071E0FDA3E0FEA3E0FF8D828E838FF01235C2900071E0FDA3E0FEA38A
:20335D00E0FF8D828E838FF01231A090006F74A0F00232D390434575F0801231189000718C
:20337D00E0FDA3E0FEA3E0FF8D828E838FF01235C2900071E0FDA3E0FEA3E0FF8D828E83A7
:20339D008FF0123261AE82AF83900027EEF0900070E07020900027E0FF7E00C007C0067470
:2033BD00AEC0E07443C0E07480C0E0123770E58124FBF58190006F74A0F00232D3904345E1
:2033DD0075F0801231189043C375F08012311890000075F0001235C290000075F000122590
:2033FD00C6AE82AF83740E5FFC9043D975F080C006C00412311890000075F0001235C290A7
:20341D00000075F0001225C6AD82AF83D004D006740E5FFA8D037F008E007900C006C005A6
:20343D00C004C002C003C007C000C00174F0C0E07443C0E07480C0E0123770E58124F9F5BE
:20345D0081D002D004D005D00690006FE0FF900011EEF0900012EDF0900013ECF09000147E
:20347D00EAF08F82122D3A90006F74A0F00232D3122FBD9000FF122FC7123065122FBD1275
:05349D002F960232D35E
:2041ED00626C6F636B206E6F2E2069732025640A0D00636F6E74726F6C2025580A0D0045C6
:20420D006E746572206461746120746F206265207772697474656E0A0D0057726F6E6720C3
:20422D00626C6F636B206E756D6265722E200A0D002A2A2A2A2A2A2A2A2A2A2A2A2A2A2AE2
:20424D002A2A0A0D4D454E5520464F522054455354494E47204932432046554E4354494F56
:20426D004E530A0D5052455353205720464F5220575249544520425954450A0D505245531E
:20428D0053205220464F522052414E444F4D20524541440A0D5052455353205320464F520A
:2042AD00204845582044554D500A0D0A0D5052455353205820464F5220454550524F4D2054
:2042CD0052455345540A0D000A0D00454E544552204144445245535320544F20424520579B
:2042ED0052495454454E202C4144445245535320494E434C5544455320424C4F434B204E19
:20430D00554D42455220414E4420574F5244204144525245535320544F47455448455220F0
:20432D00534550455241544544204259203020696E204845580A0D00454E54455220414492
:20434D00445245535320544F20424520524541442C4144445245535320494E434C554445D3
:20436D005320424C4F434B204E554D42455220414E4420574F5244204144525245535320C6
:20438D00544F47455448455220534550455241544544204259203020696E204845580A0DD3
:2043AD0000526561642076616C756520697320307825580A0D00456E74657220666972730D
:2043CD007420616464726573730A0D00456E746572207365636F6E6420616464726573739F
:1743ED000A0D000A0D4144445320617265202564202564200A0D008E
:05440F00A00000000008
:06259900E478FFF6D8FD16
:2034A200AFF0AE83E582900028F0EEA3F0EFA3F090002BE4F0A3F0900028E0FDA3E0FEA34D
:2034C200E0FF8D828E838FF0124192FCBC20028003BC09120DBD00010E900028EDF0EEA354
:2034E200F0EFA3F080DC900028EDF0EEA3F0EFA3F08D828E838FF0124192FC90002DE4BC87
:203502002D0104F0BC2D028003BC2B0E90002874012DF0E43EA3F0EFA3F0900028E0FDA36B
:20352200E0FEA3E0FF8D828E838FF0124192FCBC3000405DEC24C6405890002BE0FBA3E099
:20354200FC900034EBF0ECA3F090000AC007C006C0051236C7AB82AC83D005D006D0078DE9
:20356200828E838FF0124192FAA3AD82AE83900028EDF0EEA3F0EFA3F08A017A00E924D0DB
:20358200F9EA34FFFA90002BE92BF0EA3CA3F08094900028EDF0EEA3F0EFA3F090002DE058
:2035A200601190002BE0FEA3E0FFC3E49EFEE49FFF800890002BE0FEA3E0FF8E828F8322D1
:202577007905E94400601B7A0190440F786F75A000E493F2A308B8000205A0D9F4DAF27543
:02259700A0FFA3
:2035C200AFF0AE83E58290002EF0EEA3F0EFA3F0900031E4F0A3F0123102AE82AF83BE086C
:2035E20002800DBE0A02805FBE0D02805A023671900031E0FDA3E0FF900031E0F5F0A3E018
:2036020045F060D3900008C007C0051230DD9000201230DD9000081230DDD005D00790003B
:203622002EE024FFFAA3E034FFFBA3E0FC90002EEAF0EBA3F0ECA3F01DBDFF011F900031DE
:20364200EDF0EFA3F0809090000D1230DD90000A1230DD90002EE0FCA3E0FDA3E0FF8C82DA
:203662008D838FF0E41236AC8C828D838FF02290002EE0FCA3E0FDA3E0FF8C828D838FF0E9
:20368200EE1236AC90002E74012CF0E43DA3F0EFA3F0900031E02401F0A3E03400F07F00E5
:0A36A2008E828F831230DD0235D9CD
:1B36AC0020F71130F6138883A88220F509F6A8837583002280FEF280F5F0221D
:2036C700AA83AB828BF0900034E0A4F8A9F08AF0E0A429F98BF0A3E0A429F5838882222284
:20259F007800E84400600A790175A000E4F309D8FC786EE84400600C7901900001E4F0A3CB
:0425BF00D8FCD9FA71
:2036E700AF83E582900036F0EFA3F0900036E0FEA3E0BE61004017EE24854012900036E0C6
:1B370700FEA3E0FF74E02EFE74FF3FFF8008900036E0FEA3E0FF8E828F832204
:20372200C0128581127E008E831230DDD01222AFF0AE83E582900039F0EEA3F0EFA3F09068
:203742000039E0FDA3E0FEA3E0FF900038E0FC90004DE4F0A3F0A3F0900050EDF0EEA3F095
:20376200EFA3F0900053ECF0903722023879C012E581F51224FBFF90004DE4F0A3F0A3F036
:20378200E51224FBF8900050E6F008E6A3F008E6A3F0900053EFF0903722123879D01222EF
:2037A200E582900049F0E0FF90003FE0C0E0A3E0C0E0A3E0C0E01237BD800D90003DE0C063
:2037C200E0A3E0C0E08F8222158115811581900047E02401F0A3E03400F022E58290004A19
:2037E200F0E02430FF24C6500D74072FFF90003CE060034307208F820237A2E58290004B0D
:20380200F0E0FFC4540FF582C0071237DDD00753070F8F820237DDE58290004CF0900042E0
:20382200E0FCA3E0FDA3E0FEA3E0FF900046E0FB75132090004CE0F98B00E828F8EF235420
:203842000148FBEC2CFCED33FDEE33FEEF33FFC3EB994007EBC399FB430401E51314FA8A09
:203862001370D5900042ECF0EDA3F0EEA3F0EFA3F0900046EBF022AF83E582900054F0EF8E
:20388200A3F0900054E0FEA3E0FF90003DEEF0EFA3F090004DE0FDA3E0FEA3E0FF90003F96
:2038A200EDF0EEA3F0EFA3F0900047E4F0A3F0900050E0FDA3E0FEA3E0FF8D828E838FF089
:2038C200124192FC90005074012DF0E43EA3F0EFA3F0EC700302416EBC250280030241663D
:2038E200900056E4F0900057F0900058F0900059F090005AF090005BF090005CF090005D06
:20390200F090005FF0900060F0A3F090006214F0A3F0900050E0FDA3E0FEA3E0FF8D828E7D
:20392200838FF0124192FBA3AD82AE83900050EDF0EEA3F0EFA3F0900066EBF0BB25088B9C
:20394200821237A20238B1BB30005003023A12EB24C65003023A12900062E0F508A3E0F5C4
:203962000974FFB50863B50960C005C006C007900060E0FAA3E0FF900034EAF0EFA3F0903D
:20398200000AC005C0031236C7AE82AF83D003D0058B027D00EA2EFEED3FFFEE24D0FEEF60
:2039A20034FFFF900060EEF0EFA3F0D007D006D005900060E0F5F0A3E045F0600302391FD7
:2039C2009000577401F002391FC005C006C007900034E508F0E509A3F090000AC006C005A6
:2039E200C0031236C7AA82AF83D003D005D0067E00EB2AFAEE3FFFEA24D0FAEF34FFFF90D5
:203A02000062EAF0EFA3F0D007D006D00502391F900066E0FBBB2E2FC005C006C00790003F
:203A220062E0FAA3E0FFBAFF05BFFF028009D007D006D00502391FD007D006D0059000626F
:203A4200E4F0A3F002391FBB61004014EB2485400F90006674DF5BF090003C7401F0800506
:203A620090003CE4F0900066E0FBBB20028075BB2B028067BB2D028059BB4202806FBB4383
:203A820002807CBB4403023D09BB4603023D2FBB480302391FBB4903023D09BB4A03023978
:203AA2001FBB4C028050BB4F03023D17BB5003023C77BB53028077BB540302391FBB550360
:203AC200023D1FBB5803023D27BB5A0302391F023D379000567401F002391F900058740120
:203AE200F002391F9000597401F002391F90005B7401F002391F90005C7401F002391F90ED
:203B0200005BE0600E900053E014F9F0900066E7F0800F900053E024FEFFF08F0190006684
:203B2200E7F0900066E0F5821237A2023D46900053E024FDFFF08F018705098706098707D3
:203B42001919900042EDF0EEA3F0EFA3F08D828E838FF012417A858208858309900062E021
:203B6200FAA3E0FDBAFF0DBDFF0A900062E508F0E509A3F0900056E0704B900060E0FAA3FF
:203B8200E0FDC3E5089AE5099D503A900060EAC39508F0ED9509A3F0900060E0FAA3E0FD55
:203BA2008A068D071ABAFF011DEE4F6010758220C005C0021237A2D002D00580E3900060BE
:203BC200EAF0EDA3F0900062E0F50BA3E0F50C900042E0FAA3E0FDA3E0FF8A828D838FF0EA
:203BE200124192F50A603CC3E4950B7480850CF063F08095F0502C150B74FFB50B02150C3D
:203C0200850A821237A2900042E0FAA3E0FDA3E0FF0ABA00010D900042EAF0EDA3F0EFA368
:203C2200F080AC900056E07003023D46900060E0FEA3E0FFC3E5089EE5099F4003023D46B5
:203C4200900060EEC39508F0EF9509A3F0900060E0FEA3E0FF8E028F051EBEFF011FEA4D6E
:203C62007003023D3E758220C007C0061237A2D006D00780E0900053E024FDFDF08D0187D0
:203C82000D09870E09870F1919900042E50DF0E50EA3F0E50FA3F0900044E0FDBD800040B7
:203CA200089000667443F08020BD600040089000667450F08013BD40004008900066744923
:203CC200F080069000667458F0900066E0FDF582C0051237A275823A1237A2758230123734
:203CE200A27582781237A2D005BD4902800EBD50028009900043E0F5821237FD900042E0A1
:203D0200F5821237FD803D90005A7401F090005F740AF0802F90005F7408F0802790005FDB
:203D2200740AF0801F90005F7410F0801790005D7401F0800F8B821237A28008900060EE3B
:203D4200F0EFA3F090005DE06071900053E024FCFFF08F018703098705098706098707198A
:203D62001919900042EBF0EDA3F0EEA3F0EFA3F09000427404F07444A3F07480A3F0900043
:203D820042E0F50DA3E0F50EA3E0F50F7401250DFAE4350EFBAF0F900042EAF0EBA3F0EF56
:203DA200A3F0850D82850E83850FF0124192FF70030238B18F821237A280C390005FE07000
:203DC200030238B190005BE06047900053E014F9F087077E007D007B00900042EFF0EEA37B
:203DE200F0EDA3F0EBA3F090005AE06003023E89900042E0FBA3E0A3E0A3E07D007E007F2D
:203E020000900042EBF0EDA3F0EEA3F0EFA3F0807690005CE06028900053E024FCFFF08FC5
:203E2200018703098705098706098707191919900042EBF0EDA3F0EEA3F0EFA3F080489060
:203E42000053E024FEFFF08F01870609870719EF3395E0FDFB900042EEF0EFA3F0EDA3F00E
:203E6200EBA3F090005AE0701E900042E0FBA3E0FDA3E0A3E07E007F00900042EBF0EDA3FD
:203E8200F0EEA3F0EFA3F090005AE06041900042E0FBA3E0FDA3E0FEA3E0FF30E72B9000C0
:203EA20042E0FBA3E0FDA3E0FEA3E0FFC3E49BFBE49DFDE49EFEE49FFF900042EBF0EDA366
:203EC200F0EEA3F0EFA3F0800590005AE4F090005E7401F090005FE0F50B75106C75110011
:203EE200E4F508F509900046E4F0850B8212381990005EE07026900046E0C4F50D851082CB
:203F0200851183E0FFE50D4207851082851183EFF0151074FFB510021511800C900046E096
:203F2200FF851082851183F00508E4B50802050990005EE0B40100E433F0900042E0FAA3C9
:203F4200E0FBA3E0FEA3E0FFEA4B4E4F709790006DE510F0E511A3F0900064E508F0E5097E
:203F6200A3F0900060E0F5F0A3E045F070099000607401F0E4A3F0900057E0FFE07047900D
:203F82000056E07041850810850911900060E0FAA3E0FBC007AF100F8F067F00C3EE9AEFD1
:203FA2009BD0075019758220C007C003C0021237A2D002D003D0071ABAFF011B80D5900086
:203FC20060EAF0EBA3F090005AE0602075822DC0071237A2D007900060E024FFFDA3E03489
:203FE200FFFE900060EDF0EEA3F08056900064E0F5F0A3E045F0604A900058E06020758244
:204002002BC0071237A2D007900060E024FFFDA3E034FFFE900060EDF0EEA3F080249000C4
:2040220059E0601E758220C0071237A2D007900060E024FFFDA3E034FFFE900060EDF0EEC8
:20404200A3F0900056E07048900064E0F510A3E0F511900060E0FAA3E0FBC0078A068B07BA
:204062001ABAFF011BC3E5109EE5119FD0075053EF60067D307E0080047D207E008D82C0FC
:2040820007C003C0021237A2D002D003D00780CA900060E0FEA3E0FF900064E0F510A3E035
:2040A200F511C3E5109EE5119F500F900060EEC39510F0EF9511A3F08011900060E4F0A358
:2040C200F08008900060EAF0EBA3F090006DE0FEA3E0FF900064E0F510A3E0F511AA10ADF8
:2040E20011151074FFB510021511EA4D604590005EE0B40100E433F090005EE070140EBEA4
:2041020000010F8E828F83E0C4540FFD900046F0800E8E828F83E0FD53050F900046EDF0FA
:20412200900046E0F582C007C0061237DDD006D00780AA900056E070030238B1900060E0D2
:20414200FEA3E0FF8E038F051EBEFF011FEB4D70030238B1758220C007C0061237A2D006C2
:18416200D00780E08C821237A20238B1900047E0FEA3E08E82F5832248
:0B4404003C4E4F20464C4F41543E0000
:18417A00AA82AB831241926003A380F8C3E5829AF582E5839BF5832298
:0D256A007581131241AEE582600302256702
:1C41920020F71430F6148883A88220F507E6A88375830022E280F7E49322E0223C
:0441AE0075820022F4
:00000001FF
