:1025C600AFF0AE83E582900001F0EEA3F0EFA3F04A
:1025D600900001E0FDA3E0FEA3E0FF8D828E838FD5
:1025E600F0124400AE82AF83BE0105BF0002801325
:1025F600BE0205BF00028031BE0305BF0002807A1D
:102606000226C49000047430F0900005F09000019A
:10261600E0FBA3E0FCA3E0FD8B828C838DF01244EB
:1026260018FB900006F00226C4C007C0067438C026
:10263600E07444C0E07480C0E01239F6158115815B
:102646001581D006D0079000047430F0900001E0A8
:10265600FBA3E0FCA3E0FD8B828C838DF012441873
:10266600FA900005F00BBB00010C8B828C838DF079
:10267600124418FB900006F08044900001E0FBA392
:10268600E0FCA3E0FD8B828C838DF0124418900051
:1026960004F074012BF8E43CF98D02888289838A60
:1026A600F0124418F8900005F074022BFBE43CFC91
:1026B6008B828C838DF0124418FB900006F09000FC
:1026C60008E4F0A3F07C007D00C3EC9403ED648085
:1026D60094804003022C4EEC2404F582ED3400F580
:1026E60083E0FB7A008B828A83C007C006C005C0E0
:1026F6000412396DAA82AB83D004D005D006D00768
:10270600C3EA9430EB648094805003022C46C37471
:10271600469A74808BF063F08095F05003022C4645
:10272600EA24D0FA240A83F582EA241B83F583E49B
:10273600736568BC1064B80C60B4084646464646E5
:1027460046465CB00458ACFA2727272828282929AA
:10275600292A2C2C2C2C2C2C2C2A2A2B2B2B2B02EA
:102766002C46EC4D7012900008E0FAA3E0FB9000B6
:1027760008EAF074012BA3F08C028D03BC0116BD90
:102786000013900008E0F8A3E0F990000874102800
:10279600F0E439A3F0BA0205BB00028003022C461E
:1027A600900008E0FAA3E0FB90000874012AF0E428
:1027B6003BA3F0022C46EC4D7012900008E0FAA301
:1027C600E0FB900008EAF074022BA3F08C028D0364
:1027D600BC0116BD0013900008E0F8A3E0F99000D4
:1027E60008742028F0E439A3F0BA0205BB00028081
:1027F60003022C46900008E0FAA3E0FB9000087460
:10280600022AF0E43BA3F0022C46EC4D7012900035
:1028160008E0FAA3E0FB900008EAF074032BA3F0AB
:102826008C028D03BC0116BD0013900008E0F8A3CE
:10283600E0F9900008743028F0E439A3F0BA0205F4
:10284600BB00028003022C46900008E0FAA3E0FBDE
:1028560090000874032AF0E43BA3F0022C46EC4DEA
:102866007012900008E0FAA3E0FB900008EAF0740A
:10287600042BA3F08C028D03BC0116BD001390003F
:1028860008E0F8A3E0F9900008744028F0E439A3C2
:10289600F0BA0205BB00028003022C46900008E055
:1028A600FAA3E0FB90000874042AF0E43BA3F002CC
:1028B6002C46EC4D7012900008E0FAA3E0FB900065
:1028C60008EAF074052BA3F08C028D03BC0116BD3B
:1028D6000013900008E0F8A3E0F99000087450286F
:1028E600F0E439A3F0BA0205BB00028003022C46CD
:1028F600900008E0FAA3E0FB90000874052AF0E4D3
:102906003BA3F0022C46EC4D7012900008E0FAA3AF
:10291600E0FB900008EAF074062BA3F08C028D030E
:10292600BC0116BD0013900008E0F8A3E0F9900082
:1029360008746028F0E439A3F0BA0205BB000280EF
:1029460003022C46900008E0FAA3E0FB900008740E
:10295600062AF0E43BA3F0022C46EC4D70129000E0
:1029660008E0FAA3E0FB900008EAF074072BA3F056
:102976008C028D03BC0116BD0013900008E0F8A37D
:10298600E0F9900008747028F0E439A3F0BA020563
:10299600BB00028003022C46900008E0FAA3E0FB8D
:1029A60090000874072AF0E43BA3F0022C46EC4D95
:1029B6007012900008E0FAA3E0FB900008EAF074B9
:1029C600082BA3F08C028D03BC0116BD00139000EA
:1029D60008E0F8A3E0F9900008748028F0E439A331
:1029E600F0BA0205BB00028003022C46900008E004
:1029F600FAA3E0FB90000874082AF0E43BA3F00277
:102A06002C46EC4D7012900008E0FAA3E0FB900013
:102A160008EAF074092BA3F08C028D03BC0116BDE5
:102A26000013900008E0F8A3E0F9900008749028DD
:102A3600F0E439A3F0BA0205BB00028003022C467B
:102A4600900008E0FAA3E0FB90000874092AF0E47D
:102A56003BA3F0022C46EC4D7012900008E0FAA35E
:102A6600E0FB900008EAF0740A2BA3F08C028D03B9
:102A7600BC0116BD0013900008E0F8A3E0F9900031
:102A86000874A028F0E439A3F0BA0205BB0002805E
:102A960003022C46900008E0FAA3E0FB90000874BD
:102AA6000A2AF0E43BA3F0022C46EC4D701290008B
:102AB60008E0FAA3E0FB900008EAF0740B2BA3F001
:102AC6008C028D03BC0116BD0013900008E0F8A32C
:102AD600E0F990000874B028F0E439A3F0BA0205D2
:102AE600BB00028003022C46900008E0FAA3E0FB3C
:102AF600900008740B2AF0E43BA3F0022C46EC4D40
:102B06007012900008E0FAA3E0FB900008EAF07467
:102B16000C2BA3F08C028D03BC0116BD0013900094
:102B260008E0F8A3E0F990000874C028F0E439A39F
:102B3600F0BA0205BB00028003022C46900008E0B2
:102B4600FAA3E0FB900008740C2AF0E43BA3F00221
:102B56002C46EC4D7012900008E0FAA3E0FB9000C2
:102B660008EAF0740D2BA3F08C028D03BC0116BD90
:102B76000013900008E0F8A3E0F990000874D0284C
:102B8600F0E439A3F0BA0205BB00028003022C462A
:102B9600900008E0FAA3E0FB900008740D2AF0E428
:102BA6003BA3F0022C46EC4D7012900008E0FAA30D
:102BB600E0FB900008EAF0740E2BA3F08C028D0364
:102BC600BC0116BD0013900008E0F8A3E0F99000E0
:102BD6000874E028F0E439A3F0BA0264BB006190FF
:102BE6000008E0FAA3E0FB900008740E2AF0E43B2C
:102BF600A3F0804CEC4D7012900008E0FAA3E0FBC5
:102C0600900008EAF0740F2BA3F08C028D03BC0130
:102C160016BD0013900008E0F8A3E0F990000874D0
:102C2600F028F0E439A3F0BA0216BB0013900008AE
:102C3600E0FAA3E0FB900008740F2AF0E43BA3F04F
:102C46000CBC00010D0226CFC3EE9403EF64809402
:102C560080500E900008E0FEA3E07F008E828F83F6
:0D2C660022900008E0FEA3E08E82F583229C
:014438000083
:102C7300E58290000CF0122FAA90000CE0FE7F007A
:102C83008E828F83C007C006122FB4122F67900065
:102C93000AE0FD7C008D828C83122FB4122F679083
:102CA300000BE0FD7C008D828C83122FB4122F6702
:102CB300122F83122F8FD006D00790000D7401F0CE
:102CC300E4A3F090000DE0F5F0A3E045F0602CC024
:102CD30007C006122FAAD006D0078E828F83C007A3
:102CE300C006122FB4E5828583F090000DF0E5F065
:102CF300A3F0122F67D006D00780C8022F83E58286
:102D0300900010F0122FAA900010E0FF7E008F8237
:102D13008E83C007C006122FB4122F6790000FE0F6
:102D2300FD7C008D828C83122FB4122F67122FAA81
:102D3300D006D0070FBF00010E8F828E83122FB4EF
:102D430012305EAE82AF83C007C006123052122F1C
:102D530083122F8FD006D0078E828F8322E5829035
:102D63000015F0122FAA9000FF122FB41230521246
:102D73002FAA122F83122FAA900015E0FF7E008F37
:102D8300828E83C007C006122FB4122F67900011E2
:102D9300E0FDFB7C008B828C83C005122FB4122FC5
:102DA30067122FAAD005D006D0070FBF00010E8FE0
:102DB300828E83C005122FB4D005900013E0FEE489
:102DC300FFFCED4207EC4206900014E0FC7D00900E
:102DD3000012E07A004205EA4204C007C006C005BB
:102DE300C0047439C0E07444C0E07480C0E0123998
:102DF300F6158115811581D004D005D006D0077B47
:102E030000C3EF9DEE9C4003022EB78B01E9540FE4
:102E13007056C007C006C005C004C0037439C0E0C3
:102E23007444C0E07480C0E01239F6158115811531
:102E330081D003D004D005D006D007C007C006C098
:102E430005C004C003C007C006743CC0E07444C09E
:102E5300E07480C0E01239F6E58124FBF581D003EC
:102E6300D004D005D006D007C007C006C005C004F3
:102E7300C00312305EA982AA83C002C0011230438C
:102E8300D001D002D0030BC003C001C0027441C003
:102E9300E07444C0E07480C0E01239F6E58124FB9D
:102EA300F581D003D004D005D006D0070FBF0001B1
:102EB3000E022E04C007C006C00312305EAC82AD02
:102EC30083D003C005C004C003123052122F83D035
:102ED30003D004D005D006D007EB540F7046C007CB
:102EE300C006C005C0047439C0E07444C0E07480F7
:102EF300C0E01239F6158115811581D004D005D0B3
:102F030006D007C005C004C007C0067446C0E074FD
:102F130044C0E07480C0E01239F6E58124FBF581FA
:102F2300D004D005C004C0057441C0E07444C0E0BF
:102F33007480C0E01239F6E58124FBF5817439C051
:102F4300E07444C0E07480C0E01239F61581158145
:102F53001581122FAA9000FF122FB4123052122F94
:042F6300AA022F830C
:104439000A0D002533583A00202558200025583AFE
:014449000072
:102F6700740314B400FC22C294C295D295D2940281
:102F77002F67C295122F67C294022F67C295D2940A
:102F8700122F67D295022F677E207F03EE4F6012C4
:102F9700C007C006122F67D006D0071EBEFF011F4D
:102FA70080EA22D294C295122F67C29422AF83E59A
:102FB70082900016F0EFA3F07E007F00C3EE940826
:102FC700EF648094805057900016E0FCA3E0EC304B
:102FD700E713D295D294C007C006122F67D006D048
:102FE70007C2948011C295D294C007C006122F67FA
:102FF700D006D007C294C007C006122F67D006D0EC
:1030070007900016E0FCA3E0FDEC2CFCED33FD90EF
:103017000016ECF0EDA3F00EBE00A10F809ED29536
:1030270000D294A295E433FE7F00C007C006122F9A
:1030370067D006D007C2948E828F8322C295122F43
:1030470067D294122F67C294D29522D294122F6717
:10305700D295C294022F67900018E4F0A3F0D2959E
:103067007E007F00C3EE9408EF6480948050489000
:103077000018E0FCA3E0FDEC2CFCED33FD900018FC
:10308700ECF0EDA3F0D294C007C006122F679000B2
:1030970018E0FCA3E0FDA295E433FA7B009000184A
:1030A700EA4CF0EB4DA3F0C294122F67D006D0077D
:1030B7000EBE00B00F80AD900018E0FEA3E08E8238
:0330C700F583226C
:0325640002256AE3
:0325C30002256787
:032567000233A19B
:1030CA00AFF0AE83E58290001AF0EEA3F0EFA3F022
:1030DA0090007EE4F0A3F090001AE0FDA3E0FEA3C6
:1030EA00E0FF8D028E038F048D088E098F0A780007
:1030FA007900C002C003C004E82508FAE93509FBD3
:10310A00AC0A8A828B838CF0124418F50BD004D057
:10311A0003D002E50B70012274D0250B5006E50B93
:10312A0024C65054C002C003C004E82DFAE93EFB8D
:10313A008F048A828B838CF0124418F50BC3946136
:10314A00D004D003D0024006E50B2499502AC005CA
:10315A00C006C007E82AFDE93BFE8C078D828E83F4
:10316A008FF0124418F50BC39441D007D006D0054E
:10317A00400EE50B24B9400808B80001090230FCEA
:10318A00744AC0E07444C0E0123844158115819035
:10319A00007E7401F0E4A3F022AF83E5829000215F
:1031AA00F0EFA3F03099FD3099FDE59830E1FB90FE
:1031BA000021E0FEA3E08E99C29990000022309887
:1031CA00FDE59830E0FB10980280FBAE997F008EF7
:1031DA00828F8322AFF0AE83E582900023F0EEA3C4
:1031EA00F0EFA3F0900023E0FDA3E0FEA3E0FF7B55
:1031FA00007C008D828E838FF0124418FA60360D9F
:10320A00BD00010E900023EDF0EEA3F0EFA3F08ACB
:10321A00017A0089828A83C007C006C005C004C03B
:10322A00031231A3D003D004D005D006D0070BBBBC
:10323A0000C10C80BE900023EDF0EEA3F0EFA3F0E6
:10324A000BBB00010C8B828C832290000075F0006E
:10325A0012373F90000075F00002361FAFF0AE83C0
:10326A00E582900028F0EEA3F0EFA3F0900028E0AA
:10327A00FDA3E0FEA3E0FF8D828E838FF01225C6A8
:10328A00AE82AF838E0474075FFD740E5FFB7C0011
:10329A00C3EB9408EC9400500CED2DFD900080E0F7
:1032AA00FC4DF0800990447375F0800231DE904441
:1032BA008975F080C0061231DE90001D75F000128B
:1032CA00373F90001D75F0001230CAD00690007E7C
:1032DA00E0F5F0A3E045F0703E9044A475F080C09C
:1032EA00061231DE90001D75F0001231DE9044ADF9
:1032FA0075F0801231DE90001D75F0001225C6AD02
:10330A0082D006900080E0FF90000AEEF090000B59
:10331A00EDF08F82022C7322AFF0AE83E58290002B
:10332A002BF0EEA3F0EFA3F090002BE0FDA3E0FE5C
:10333A00A3E0FF8D828E838FF01225C6AE82AF8303
:10334A008E0474075FFD740E5FFB7C00C3EB940868
:10335A00EC9400500CED2DFD900080E0FC4DF080C7
:10336A00069000817401F0900081E0600D9044B0F5
:10337A0075F0801231DE90FFFF22900080E0FF900E
:10338A00000FEEF08F82122D01AE82AF8390008182
:10339A00E4F08E828F8322122F6E900081E4F090E7
:1033AA0044C775F0801231DE1231C8AE82AF839005
:1033BA000026EEF0EFA3F08E828F831231A39044A1
:1033CA00AD75F0801231DE900026E0FEA3E0FF8E9C
:1033DA00828F8312396DAE82AF83BE5205BF00025F
:1033EA008055BE5306BF00030234A8BE5705BF006E
:1033FA0002800CBE5806BF00030235F2023607905F
:10340A00456475F0801231DE90001D75F0001237A8
:10341A003F90001D75F0001230CA90007EE0F5F072
:10342A00A3E045F0700890001DF5F0123266900096
:10343A008074A0F00233A49045C275F0801231DE88
:10344A0090001D75F00012373F90001D75F00012B4
:10345A0030CA90007EE0F5F0A3E045F070379000A6
:10346A001DF5F0123322AE82AF8390002EEEF0905B
:10347A000081E0702090002EE0FF7E00C007C006A9
:10348A00741CC0E07446C0E07480C0E01239F6E5EE
:10349A008124FBF58190008074A0F00233A490444B
:1034AA00AD75F0801231DE90463175F0801231DE52
:1034BA0090002F75F00012373F90002F75F0001220
:1034CA0030CA90007EE0F5F0A3E045F06015904622
:1034DA004775F0801231DE9044AD75F0801231DE0E
:1034EA000233A490002F75F0001225C6AE82AF8376
:1034FA008E0474075FFD8E0490465675F080C007EF
:10350A00C006C005C0041231DE90003375F0001207
:10351A00373F90003375F0001230CAD004D005D07E
:10352A0006D00790007EE0F5F0A3E045F060159024
:10353A00464775F0801231DE9044AD75F080123145
:10354A00DE0233A4C00490003375F000C007C00641
:10355A00C005C0041225C6AA82AB83D004D005D008
:10356A0006D0078A0074075BF98A0C740E5FF87C30
:10357A0000C3740798E49CD0044012C004740E5B24
:10358A00F87C00C3740798E49CD004500C90466DF4
:10359A0075F0801231DE0233A4C3EA9EEB9F501805
:1035AA007489C0E07446C0E07480C0E01239F61530
:1035BA0081158115810233A48D07EF2FFF900080BA
:1035CA00E04FF0E0FF900011ECF0900012E50CF0F3
:1035DA00900013EDF0900014E9F08F82122D6090A4
:1035EA00008074A0F00233A4122FAA9000FF122FB9
:1035FA00B4123052122FAA122F830233A474BAC003
:10360A00E07446C0E07480C0E01239F61581158175
:05361A0015810233A43C
:10444A00496E76616C696420636861726163746540
:10445A007220656E746572656420506C656173655F
:10446A002072657472790A0D000A0D496E76616CC4
:10447A00696420626C6F636B206E6F2E0A0D0045B3
:10448A006E746572206461746120746F20626520A5
:10449A007772697474656E0A0D00646174612069CB
:1044AA007320000A0D0057726F6E6720626C6F638B
:1044BA006B206E756D6265722E200A0D002A2A2AFB
:1044CA002A2A2A2A2A2A2A2A2A2A2A2A2A2A2A2A42
:1044DA002A2A2A2A2A2A0A0D4D454E5520464F5283
:1044EA002054455354494E47204932432046554E9D
:1044FA004354494F4E530A0D5052455353205720A7
:10450A00464F5220575249544520425954450A0DA4
:10451A005052455353205220464F522052414E4446
:10452A004F4D20524541440A0D5052455353205392
:10453A0020464F52204845582044554D500A0D50A8
:10454A0052455353205820464F5220454550524F0A
:10455A004D2052455345540A0D00454E54455220AC
:10456A004144445245535320544F20424520575208
:10457A00495454454E202C414444524553532049F2
:10458A004E434C5544455320424C4F434B204E55C5
:10459A004D42455220414E4420574F5244204144F7
:1045AA00525245535320544F474554484552204987
:1045BA004E204845580A0D00454E54455220414464
:1045CA00445245535320544F2042452052454144BA
:1045DA002C4144445245535320494E434C5544457B
:1045EA005320424C4F434B204E554D424552204199
:1045FA004E4420574F52442041445252455353206F
:10460A00544F47455448455220696E204845580A38
:10461A000D00526561642076616C756520697320AE
:10462A00307825580A0D00456E74657220666972E5
:10463A00737420616464726573730A0D0045727243
:10464A006F7220696E20696E70757400456E7465AC
:10465A0072207365636F6E6420616464726573733C
:10466A000A0D00426C6F636B206E756D6265727322
:10467A002061726520696E76616C69640A0D004971
:10468A006E697469616C2061646472657373206910
:10469A00732067726561746572207468616E205355
:1046AA0065636F6E6420616464726573730A0D00DA
:1046BA004E6F2066756E6374696F6E2061747461E3
:1046CA006368656420746F20696E7075740D0A00E2
:0446E5000000A00031
:06259900E478FFF6D8FD16
:10361F00AFF0AE83E582900037F0EEA3F0EFA3F0AA
:10362F0090003AE4F0A3F0900037E0FDA3E0FEA392
:10363F00E0FF8D828E838FF0124418FCBC20028035
:10364F0003BC09120DBD00010E900037EDF0EEA383
:10365F00F0EFA3F080DC900037EDF0EEA3F0EFA3D6
:10366F00F08D828E838FF0124418FC90003CE4BCE6
:10367F002D0104F0BC2D028003BC2B0E900037747B
:10368F00012DF0E43EA3F0EFA3F0900037E0FDA38F
:10369F00E0FEA3E0FF8D828E838FF0124418FCBCF6
:1036AF003000405DEC24C6405890003AE0FBA3E0A8
:1036BF00FC900043EBF0ECA3F090000AC007C006AB
:1036CF00C00512394DAB82AC83D005D006D0078D23
:1036DF00828E838FF0124418FAA3AD82AE839000CE
:1036EF0037EDF0EEA3F0EFA3F08A017A00E924D0D2
:1036FF00F9EA34FFFA90003AE92BF0EA3CA3F080A4
:10370F0094900037EDF0EEA3F0EFA3F090003CE0C3
:10371F00601190003AE0FEA3E0FFC3E49EFEE49F39
:10372F00FF800890003AE0FEA3E0FF8E828F832295
:102577007904E94400601B7A019046E5787E75A0EE
:1025870000E493F2A308B8000205A0D9F4DAF275C3
:02259700A0FFA3
:10373F00AFF0AE83E58290003DF0EEA3F0EFA3F083
:10374F00900040E4F0A3F01231C8AE82AF83BE0800
:10375F0002800DBE0A02805FBE0D02805A0237EE54
:10376F00900040E0FDA3E0FF900040E0F5F0A3E003
:10377F0045F060D3900008C007C0051231A3900038
:10378F00201231A39000081231A3D005D00790006A
:10379F003DE024FFFAA3E034FFFBA3E0FC90003DE3
:1037AF00EAF0EBA3F0ECA3F01DBDFF011F9000406A
:1037BF00EDF0EFA3F0809090000D1231A390000A6E
:1037CF001231A390003DE0FCA3E0FDA3E0FF8C824B
:1037DF008D838FF0E41238298C828D838FF02290A5
:1037EF00003DE0FCA3E0FDA3E0FF8C828D838FF012
:1037FF00EE12382990003D74012CF0E43DA3F0EF58
:10380F00A3F0900040E02401F0A3E03400F07F002B
:10381F008E828F831231A302375620F71130F613A1
:10382F008883A88220F509F6A8837583002280FE7D
:10383F00F280F5F022C00D85810DE50D24FDF8868F
:10384F008318868218E493A324DB600C242560057B
:10385F0012393280F002394AD2D5E493A3C083C023
:10386F0082B4731486F0188683188682181244184F
:10387F006054A312393280F5B4630818E618123970
:10388F00328043B46417E630E74618E6F42401F6B5
:10389F0008E6F43400F6742D1239328033B4782DE3
:1038AF00868318868218E4123923E583123922E5BC
:1038BF0083123923E582123922E58212392330D55A
:1038CF00057430123932D082D083023854B475F671
:1038DF00E6FA18E6F9187C107D2712390DFF7CE8FF
:1038EF007D0312390DC4F5837C647D0012390D42BE
:1038FF0083E975F00A84C445F0F582EF80A97B0057
:10390F000BC3E99CF9EA9DFA50F61BE92CF9EA3D45
:10391F00FAEB22C4540F700320D51FC2D52490D4C4
:10392F003440D4C083C082C0F0F582E8C0E01231C9
:10393F00A3D0E0F8D0F0D082D08322D00D22AA837A
:10394F00AB828BF0900043E0A4F8A9F08AF0E0A4DA
:0E395F0029F98BF0A3E0A429F58388822222A7
:10259F007800E84400600A790175A000E4F309D8D7
:1025AF00FC787DE84400600C7901900001E4F0A311
:0425BF00D8FCD9FA71
:10396D00AF83E582900045F0EFA3F0900045E0FEB7
:10397D00A3E0BE61004017EE24854012900045E0A3
:10398D00FEA3E0FF74E02EFE74FF3FFF8008900061
:10399D0045E0FEA3E0FF8E828F8322C00D85810D51
:1039AD007E008E831231A3D00D22AFF0AE83E5825F
:1039BD00900048F0EEA3F0EFA3F0900048E0FDA3D7
:1039CD00E0FEA3E0FF900047E0FC90005CE4F0A374
:1039DD00F0A3F090005FEDF0EEA3F0EFA3F09000F8
:1039ED0062ECF09039A8023AFFC00DE581F50D2487
:1039FD00FBFF90005CE4F0A3F0A3F0E50D24FBF8D1
:103A0D0090005FE6F008E6A3F008E6A3F0900062F0
:103A1D00EFF09039A8123AFFD00D22E582900058B0
:103A2D00F0E0FF90004EE0C0E0A3E0C0E0A3E0C0F6
:103A3D00E0123A43800D90004CE0C0E0A3E0C0E0FE
:103A4D008F8222158115811581900056E02401F099
:103A5D00A3E03400F022E582900059F0E02430FF1D
:103A6D0024C6500D74072FFF90004BE060034307F1
:103A7D00208F82023A28E58290005AF0E0FFC4546C
:103A8D000FF582C007123A63D00753070F8F8202DA
:103A9D003A63E58290005BF0900051E0FCA3E0FDFD
:103AAD00A3E0FEA3E0FF900055E0FB751820900009
:103ABD005BE0F98B00E828F8EF23540148FBEC2C70
:103ACD00FCED33FDEE33FEEF33FFC3EB994007EB17
:103ADD00C399FB430401E51814FA8A1870D59000B8
:103AED0051ECF0EDA3F0EEA3F0EFA3F0900055EB49
:103AFD00F022AF83E582900063F0EFA3F0900063B6
:103B0D00E0FEA3E0FF90004CEEF0EFA3F090005C20
:103B1D00E0FDA3E0FEA3E0FF90004EEDF0EEA3F07C
:103B2D00EFA3F0900056E4F0A3F090005FE0FDA34A
:103B3D00E0FEA3E0FF8D828E838FF0124418FC907F
:103B4D00005F74012DF0E43EA3F0EFA3F0EC7003E1
:103B5D000243F4BC250280030243EC900065E4F0BF
:103B6D00900066F0900067F0900068F0900069F0AA
:103B7D0090006AF090006BF090006CF090006EF089
:103B8D0090006FF0A3F090007114F0A3F090005F1F
:103B9D00E0FDA3E0FEA3E0FF8D828E838FF0124443
:103BAD0018FBA3AD82AE8390005FEDF0EEA3F0EFB6
:103BBD00A3F0900075EBF0BB25088B82123A28021A
:103BCD003B37BB30005003023C98EB24C650030238
:103BDD003C98900071E0F50EA3E0F50F74FFB50E63
:103BED0063B50F60C005C006C00790006FE0FAA373
:103BFD00E0FF900043EAF0EFA3F090000AC005C08B
:103C0D000312394DAE82AF83D003D0058B027D00F8
:103C1D00EA2EFEED3FFFEE24D0FEEF34FFFF9000C5
:103C2D006FEEF0EFA3F0D007D006D00590006FE057
:103C3D00F5F0A3E045F06003023BA590006674012A
:103C4D00F0023BA5C005C006C007900043E50EF08D
:103C5D00E50FA3F090000AC006C005C00312394D50
:103C6D00AA82AF83D003D005D0067E00EB2AFAEEF0
:103C7D003FFFEA24D0FAEF34FFFF900071EAF0EF36
:103C8D00A3F0D007D006D005023BA5900075E0FB50
:103C9D00BB2E2FC005C006C007900071E0FAA3E04F
:103CAD00FFBAFF05BFFF028009D007D006D005027D
:103CBD003BA5D007D006D005900071E4F0A3F0022B
:103CCD003BA5BB61004014EB2485400F900075743B
:103CDD00DF5BF090004B7401F0800590004BE4F039
:103CED00900075E0FBBB20028075BB2B028067BB8B
:103CFD002D028059BB4202806FBB4302807CBB44C6
:103D0D0003023F8FBB4603023FB5BB4803023BA5F1
:103D1D00BB4903023F8FBB4A03023BA5BB4C02804C
:103D2D0050BB4F03023F9DBB5003023EFDBB5302F0
:103D3D008077BB5403023BA5BB5503023FA5BB587F
:103D4D0003023FADBB5A03023BA5023FBD90006588
:103D5D007401F0023BA59000677401F0023BA59041
:103D6D0000687401F0023BA590006A7401F0023BFB
:103D7D00A590006B7401F0023BA590006AE0600E07
:103D8D00900062E014F9F0900075E7F0800F90005C
:103D9D0062E024FEFFF08F01900075E7F090007552
:103DAD00E0F582123A28023FCC900062E024FDFF3C
:103DBD00F08F0187050987060987071919900051AA
:103DCD00EDF0EEA3F0EFA3F08D828E838FF0124411
:103DDD000085820E85830F900071E0FAA3E0FDBA95
:103DED00FF0DBDFF0A900071E50EF0E50FA3F090F9
:103DFD000065E0704B90006FE0FAA3E0FDC3E50EA7
:103E0D009AE50F9D503A90006FEAC3950EF0ED952F
:103E1D000FA3F090006FE0FAA3E0FD8A068D071A5C
:103E2D00BAFF011DEE4F6010758220C005C0021251
:103E3D003A28D002D00580E390006FEAF0EDA3F0B0
:103E4D00900071E0F511A3E0F512900051E0FAA396
:103E5D00E0FDA3E0FF8A828D838FF0124418F510E8
:103E6D00603CC3E4951174808512F063F08095F089
:103E7D00502C151174FFB511021512851082123ACE
:103E8D0028900051E0FAA3E0FDA3E0FF0ABA00017B
:103E9D000D900051EAF0EDA3F0EFA3F080AC90008F
:103EAD0065E07003023FCC90006FE0FEA3E0FFC31E
:103EBD00E50E9EE50F9F4003023FCC90006FEEC3D1
:103ECD00950EF0EF950FA3F090006FE0FEA3E0FFCD
:103EDD008E028F051EBEFF011FEA4D7003023FC407
:103EED00758220C007C006123A28D006D00780E0A0
:103EFD00900062E024FDFDF08D0187130987140900
:103F0D0087151919900051E513F0E514A3F0E51587
:103F1D00A3F0900053E0FDBD800040089000757443
:103F2D0043F08020BD600040089000757450F08013
:103F3D0013BD400040089000757449F08006900054
:103F4D00757458F0900075E0FDF582C005123A28A1
:103F5D0075823A123A28758230123A287582781293
:103F6D003A28D005BD4902800EBD5002800990004F
:103F7D0052E0F582123A83900051E0F582123A83B5
:103F8D00803D9000697401F090006E740AF0802FEE
:103F9D0090006E7408F0802790006E740AF0801FF8
:103FAD0090006E7410F0801790006C7401F0800F0B
:103FBD008B82123A28800890006FEEF0EFA3F090FC
:103FCD00006CE06071900062E024FCFFF08F0187CF
:103FDD0003098705098706098707191919900051E3
:103FED00EBF0EDA3F0EEA3F0EFA3F090005174DA37
:103FFD00F07446A3F07480A3F0900051E0F513A384
:10400D00E0F514A3E0F51574012513FAE43514FB5E
:10401D00AF15900051EAF0EBA3F0EFA3F0851382FA
:10402D008514838515F0124418FF7003023B378FFA
:10403D0082123A2880C390006EE07003023B3790E5
:10404D00006AE06047900062E014F9F087077E0097
:10405D007D007B00900051EFF0EEA3F0EDA3F0EBAF
:10406D00A3F0900069E0600302410F900051E0FB66
:10407D00A3E0A3E0A3E07D007E007F00900051EB64
:10408D00F0EDA3F0EEA3F0EFA3F0807690006BE0DF
:10409D006028900062E024FCFFF08F018703098700
:1040AD0005098706098707191919900051EBF0EDDD
:1040BD00A3F0EEA3F0EFA3F08048900062E024FEA1
:1040CD00FFF08F01870609870719EF3395E0FDFB98
:1040DD00900051EEF0EFA3F0EDA3F0EBA3F0900004
:1040ED0069E0701E900051E0FBA3E0FDA3E0A3E0AA
:1040FD007E007F00900051EBF0EDA3F0EEA3F0EF0A
:10410D00A3F0900069E06041900051E0FBA3E0FD59
:10411D00A3E0FEA3E0FF30E72B900051E0FBA3E00E
:10412D00FDA3E0FEA3E0FFC3E49BFBE49DFDE49E45
:10413D00FEE49FFF900051EBF0EDA3F0EEA3F0EF46
:10414D00A3F08005900069E4F090006D7401F0908B
:10415D00006EE0F51175167B751700E4F50EF50F81
:10416D00900055E4F0851182123A9F90006DE07039
:10417D0026900055E0C4F513851682851783E0FF60
:10418D00E5134207851682851783EFF0151674FF28
:10419D00B516021517800C900055E0FF8516828527
:1041AD001783F0050EE4B50E02050F90006DE0B417
:1041BD000100E433F0900051E0FAA3E0FBA3E0FE30
:1041CD00A3E0FFEA4B4E4F709790007CE516F0E5AB
:1041DD0017A3F0900073E50EF0E50FA3F090006FBC
:1041ED00E0F5F0A3E045F0700990006F7401F0E484
:1041FD00A3F0900066E0FFE07047900065E070412D
:10420D00850E16850F1790006FE0FAA3E0FBC0072F
:10421D00AF160F8F067F00C3EE9AEF9BD007501994
:10422D00758220C007C003C002123A28D002D00305
:10423D00D0071ABAFF011B80D590006FEAF0EBA3EF
:10424D00F0900069E0602075822DC007123A28D0E9
:10425D000790006FE024FFFDA3E034FFFE90006F98
:10426D00EDF0EEA3F08056900073E0F5F0A3E0457D
:10427D00F0604A900067E0602075822BC007123A0B
:10428D0028D00790006FE024FFFDA3E034FFFE90DF
:10429D00006FEDF0EEA3F08024900068E0601E75D5
:1042AD008220C007123A28D00790006FE024FFFD4E
:1042BD00A3E034FFFE90006FEDF0EEA3F0900065EB
:1042CD00E07048900073E0F516A3E0F51790006FCD
:1042DD00E0FAA3E0FBC0078A068B071ABAFF011BA1
:1042ED00C3E5169EE5179FD0075053EF60067D304E
:1042FD007E0080047D207E008D82C007C003C00239
:10430D00123A28D002D003D00780CA90006FE0FE89
:10431D00A3E0FF900073E0F516A3E0F517C3E516D3
:10432D009EE5179F500F90006FEEC39516F0EF9519
:10433D0017A3F0801190006FE4F0A3F080089000B7
:10434D006FEAF0EBA3F090007CE0FEA3E0FF90009D
:10435D0073E0F516A3E0F517AA16AD17151674FF41
:10436D00B516021517EA4D604590006DE0B40100D9
:10437D00E433F090006DE070140EBE00010F8E82DC
:10438D008F83E0C4540FFD900055F0800E8E828F08
:10439D0083E0FD53050F900055EDF0900055E0F5CD
:1043AD0082C007C006123A63D006D00780AA9000DB
:1043BD0065E07003023B3790006FE0FEA3E0FF8ED7
:1043CD00038F051EBEFF011FEB4D7003023B3775BA
:1043DD008220C007C006123A28D006D00780E08C94
:1043ED0082123A28023B37900056E0FEA3E08E82FF
:0343FD00F5832223
:0B46DA003C4E4F20464C4F41543E0028
:10440000AA82AB831244186003A380F8C3E5829AA2
:08441000F582E5839BF5832290
:0D256A00758118124434E582600302256774
:1044180020F71430F6148883A88220F507E6A883CD
:1044280075830022E280F7E49322E022758200225D
:00000001FF
