:2025C600AFF0AE83E582900001F0EEA3F0EFA3F0900001E0FDA3E0FEA3E0FF8D828E838F1A
:2025E600F01243BBAE82AF83BE0105BF00028013BE0205BF00028031BE0305BF0002807AA3
:202606000226C49000047430F0900005F0900001E0FBA3E0FCA3E0FD8B828C838DF01243C2
:20262600D3FB900006F00226C4C007C00674F3C0E07443C0E07480C0E01239B115811581AD
:202646001581D006D0079000047430F0900001E0FBA3E0FCA3E0FD8B828C838DF01243D3DD
:20266600FA900005F00BBB00010C8B828C838DF01243D3FB900006F08044900001E0FBA3ED
:20268600E0FCA3E0FD8B828C838DF01243D3900004F074012BF8E43CF98D02888289838AB3
:2026A600F01243D3F8900005F074022BFBE43CFC8B828C838DF01243D3FB900006F09000F5
:2026C60008E4F0A3F07C007D00C3EC9403ED648094804003022C4EEC2404F582ED3400F501
:2026E60083E0FB7A008B828A83C007C006C005C004123928AA82AB83D004D005D006D007A9
:20270600C3EA9430EB648094805003022C46C374469A74808BF063F08095F05003022C46F3
:20272600EA24D0FA240A83F582EA241B83F583E4736568BC1064B80C60B4084646464646DD
:2027460046465CB00458ACFA2727272828282929292A2C2C2C2C2C2C2C2A2A2B2B2B2B0211
:202766002C46EC4D7012900008E0FAA3E0FB900008EAF074012BA3F08C028D03BC0116BDE3
:202786000013900008E0F8A3E0F9900008741028F0E439A3F0BA0205BB00028003022C46DB
:2027A600900008E0FAA3E0FB90000874012AF0E43BA3F0022C46EC4D7012900008E0FAA306
:2027C600E0FB900008EAF074022BA3F08C028D03BC0116BD0013900008E0F8A3E0F9900035
:2027E60008742028F0E439A3F0BA0205BB00028003022C46900008E0FAA3E0FB90000874FE
:20280600022AF0E43BA3F0022C46EC4D7012900008E0FAA3E0FB900008EAF074032BA3F01E
:202826008C028D03BC0116BD0013900008E0F8A3E0F9900008743028F0E439A3F0BA020520
:20284600BB00028003022C46900008E0FAA3E0FB90000874032AF0E43BA3F0022C46EC4D46
:202866007012900008E0FAA3E0FB900008EAF074042BA3F08C028D03BC0116BD00139000E7
:2028860008E0F8A3E0F9900008744028F0E439A3F0BA0205BB00028003022C46900008E0D5
:2028A600FAA3E0FB90000874042AF0E43BA3F0022C46EC4D7012900008E0FAA3E0FB90000F
:2028C60008EAF074052BA3F08C028D03BC0116BD0013900008E0F8A3E0F9900008745028A8
:2028E600F0E439A3F0BA0205BB00028003022C46900008E0FAA3E0FB90000874052AF0E4BE
:202906003BA3F0022C46EC4D7012900008E0FAA3E0FB900008EAF074062BA3F08C028D03FC
:20292600BC0116BD0013900008E0F8A3E0F9900008746028F0E439A3F0BA0205BB000280D0
:2029460003022C46900008E0FAA3E0FB90000874062AF0E43BA3F0022C46EC4D701290006D
:2029660008E0FAA3E0FB900008EAF074072BA3F08C028D03BC0116BD0013900008E0F8A372
:20298600E0F9900008747028F0E439A3F0BA0205BB00028003022C46900008E0FAA3E0FBAF
:2029A60090000874072AF0E43BA3F0022C46EC4D7012900008E0FAA3E0FB900008EAF0742D
:2029C600082BA3F08C028D03BC0116BD0013900008E0F8A3E0F9900008748028F0E439A31A
:2029E600F0BA0205BB00028003022C46900008E0FAA3E0FB90000874082AF0E43BA3F0029A
:202A06002C46EC4D7012900008E0FAA3E0FB900008EAF074092BA3F08C028D03BC0116BD38
:202A26000013900008E0F8A3E0F9900008749028F0E439A3F0BA0205BB00028003022C46B8
:202A4600900008E0FAA3E0FB90000874092AF0E43BA3F0022C46EC4D7012900008E0FAA35B
:202A6600E0FB900008EAF0740A2BA3F08C028D03BC0116BD0013900008E0F8A3E0F990008A
:202A86000874A028F0E439A3F0BA0205BB00028003022C46900008E0FAA3E0FB90000874DB
:202AA6000A2AF0E43BA3F0022C46EC4D7012900008E0FAA3E0FB900008EAF0740B2BA3F06C
:202AC6008C028D03BC0116BD0013900008E0F8A3E0F990000874B028F0E439A3F0BA0205FE
:202AE600BB00028003022C46900008E0FAA3E0FB900008740B2AF0E43BA3F0022C46EC4D9C
:202B06007012900008E0FAA3E0FB900008EAF0740C2BA3F08C028D03BC0116BD001390003C
:202B260008E0F8A3E0F990000874C028F0E439A3F0BA0205BB00028003022C46900008E0B2
:202B4600FAA3E0FB900008740C2AF0E43BA3F0022C46EC4D7012900008E0FAA3E0FB900064
:202B660008EAF0740D2BA3F08C028D03BC0116BD0013900008E0F8A3E0F990000874D0287D
:202B8600F0E439A3F0BA0205BB00028003022C46900008E0FAA3E0FB900008740D2AF0E413
:202BA6003BA3F0022C46EC4D7012900008E0FAA3E0FB900008EAF0740E2BA3F08C028D0352
:202BC600BC0116BD0013900008E0F8A3E0F990000874E028F0E439A3F0BA0264BB006190E0
:202BE6000008E0FAA3E0FB900008740E2AF0E43BA3F0804CEC4D7012900008E0FAA3E0FB12
:202C0600900008EAF0740F2BA3F08C028D03BC0116BD0013900008E0F8A3E0F99000087442
:202C2600F028F0E439A3F0BA0216BB0013900008E0FAA3E0FB900008740F2AF0E43BA3F05F
:202C46000CBC00010D0226CFC3EE9403EF64809480500E900008E0FEA3E07F008E828F837A
:0D2C660022900008E0FEA3E08E82F583229C
:0143F30000C9
:202C7300E58290000CF0122FAA90000CE0FE7F008E828F83C007C006122FB4122F6790008E
:202C93000AE0FD7C008D828C83122FB4122F6790000BE0FD7C008D828C83122FB4122F6754
:202CB300122F83122F8FD006D00790000D7401F0E4A3F090000DE0F5F0A3E045F0602CC0E1
:202CD30007C006122FAAD006D0078E828F83C007C006122FB4E5828583F090000DF0E5F017
:202CF300A3F0122F67D006D00780C8022F83E582900010F0122FAA900010E0FF7E008F82ED
:202D13008E83C007C006122FB4122F6790000FE0FD7C008D828C83122FB4122F67122FAAC7
:202D3300D006D0070FBF00010E8F828E83122FB412305EAE82AF83C007C006123052122F7B
:202D530083122F8FD006D0078E828F8322E582900015F0122FAA9000FF122FB4123052120B
:202D73002FAA122F83122FAA900015E0FF7E008F828E83C007C006122FB4122F67900011C9
:202D9300E0FDFB7C008B828C83C005122FB4122F67122FAAD005D006D0070FBF00010E8F75
:202DB300828E83C005122FB4D005900013E0FEE4FFFCED4207EC4206900014E0FC7D009087
:202DD3000012E07A004205EA4204C007C006C005C00474F4C0E07443C0E07480C0E01239A9
:202DF300B1158115811581D004D005D006D0077B00C3EF9DEE9C4003022EB78B01E9540FA1
:202E13007056C007C006C005C004C00374F4C0E07443C0E07480C0E01239B11581158115D0
:202E330081D003D004D005D006D007C007C006C005C004C003C007C00674F7C0E07443C0ED
:202E5300E07480C0E01239B1E58124FBF581D003D004D005D006D007C007C006C005C004B5
:202E7300C00312305EA982AA83C002C001123043D001D002D0030BC003C001C00274FCC085
:202E9300E07443C0E07480C0E01239B1E58124FBF581D003D004D005D006D0070FBF000165
:202EB3000E022E04C007C006C00312305EAC82AD83D003C005C004C003123052122F83D028
:202ED30003D004D005D006D007EB540F7046C007C006C005C00474F4C0E07443C0E0748019
:202EF300C0E01239B1158115811581D004D005D006D007C005C004C007C0067401C0E0746C
:202F130044C0E07480C0E01239B1E58124FBF581D004D005C004C00574FCC0E07443C0E096
:202F33007480C0E01239B1E58124FBF58174F4C0E07443C0E07480C0E01239B115811581D8
:142F53001581122FAA9000FF122FB4123052122FAA022F8332
:1143F4000A0D002533583A00202558200025583A0043
:202F6700740314B400FC22C294C295D295D294022F67C295122F67C294022F67C295D29431
:202F8700122F67D295022F677E207F03EE4F6012C007C006122F67D006D0071EBEFF011FD7
:202FA70080EA22D294C295122F67C29422AF83E582900016F0EFA3F07E007F00C3EE9408A6
:202FC700EF648094805057900016E0FCA3E0EC30E713D295D294C007C006122F67D006D099
:202FE70007C2948011C295D294C007C006122F67D006D007C294C007C006122F67D006D00C
:2030070007900016E0FCA3E0FDEC2CFCED33FD900016ECF0EDA3F00EBE00A10F809ED2956C
:2030270000D294A295E433FE7F00C007C006122F67D006D007C2948E828F8322C295122F44
:2030470067D294122F67C294D29522D294122F67D295C294022F67900018E4F0A3F0D2953C
:203067007E007F00C3EE9408EF648094805048900018E0FCA3E0FDEC2CFCED33FD900018A3
:20308700ECF0EDA3F0D294C007C006122F67900018E0FCA3E0FDA295E433FA7B00900018C3
:2030A700EA4CF0EB4DA3F0C294122F67D006D0070EBE00B00F80AD900018E0FEA3E08E829C
:0330C700F583226C
:0325640002256AE3
:0325C30002256787
:03256700023383B9
:2030CA00AFF0AE83E58290001AF0EEA3F0EFA3F090007EE4F0A3F090001AE0FDA3E0FEA3F2
:2030EA00E0FF8D028E038F048D088E098F0A78007900C002C003C004E82508FAE93509FB04
:20310A00AC0A8A828B838CF01243D3F50BD004D003D002E50B70012274D0250B5006E50B7B
:20312A0024C65054C002C003C004E82DFAE93EFB8F048A828B838CF01243D3F50BC3946174
:20314A00D004D003D0024006E50B2499502AC005C006C007E82AFDE93BFE8C078D828E8349
:20316A008FF01243D3F50BC39441D007D006D005400EE50B24B9400808B80001090230FC29
:20318A007405C0E07444C0E01237FF1581158190007E7401F0E4A3F022AF83E582900021EA
:2031AA00F0EFA3F03099FD3099FDE59830E1FB900021E0FEA3E08E99C29990000022309870
:2031CA00FDE59830E0FB10980280FBAE997F008E828F8322AFF0AE83E582900023F0EEA3C6
:2031EA00F0EFA3F0900023E0FDA3E0FEA3E0FF7B007C008D828E838FF01243D3FA60360D65
:20320A00BD00010E900023EDF0EEA3F0EFA3F08A017A0089828A83C007C006C005C004C052
:20322A00031231A3D003D004D005D006D0070BBB00C10C80BE900023EDF0EEA3F0EFA3F00E
:20324A000BBB00010C8B828C832290000075F0001236FA90000075F0000235DAAFF0AE8346
:20326A00E582900028F0EEA3F0EFA3F0900028E0FDA3E0FEA3E0FF8D828E838FF01225C6FE
:20328A00AE82AF837C00740E5FFDBD08005008900080E04DF0800990442E75F0800231DE9D
:2032AA0090444475F080C0061231DE90001D75F0001236FA90001D75F0001230CAD0069048
:2032CA00007EE0F5F0A3E045F0703E90445F75F080C0061231DE90001D75F0001231DE9079
:2032EA00446875F0801231DE90001D75F0001225C6AD82D006900080E0FF90000AEEF09007
:20330A00000BEDF08F82022C7322AFF0AE83E58290002BF0EEA3F0EFA3F090002BE0FDA3C7
:20332A00E0FEA3E0FF8D828E838FF01225C6AE82AF83740E5FFDBD07005008900080E04DEE
:20334A00F080069000817401F0900081E0600D90446B75F0801231DE90FFFF22900080E034
:20336A00FF90000FEEF08F82122D01AE82AF83900081E4F08E828F8322122F6E900081E447
:20338A00F090448275F0801231DE1231C8AE82AF83900026EEF0EFA3F08E828F831231A34C
:2033AA0090446875F0801231DE900026E0FEA3E0FF8E828F83123928AE82AF83BE5205BFE0
:2033CA0000028055BE5306BF000302348ABE5705BF0002800CBE5806BF00030235AD023513
:2033EA00C290451F75F0801231DE90001D75F0001236FA90001D75F0001230CA90007EE0A7
:20340A00F5F0A3E045F0700890001DF5F012326690008074A0F002338690457D75F0801239
:20342A0031DE90001D75F0001236FA90001D75F0001230CA90007EE0F5F0A3E045F07037CF
:20344A0090001DF5F0123314AE82AF8390002EEEF0900081E0702090002EE0FF7E00C00716
:20346A00C00674D7C0E07445C0E07480C0E01239B1E58124FBF58190008074A0F0023386DE
:20348A0090446875F0801231DE9045EC75F0801231DE90002F75F0001236FA90002F75F08F
:2034AA00001230CA90007EE0F5F0A3E045F0601590460275F0801231DE90446875F08012E5
:2034CA0031DE02338690002F75F0001225C6AE82AF83740E5FFD8E0490461175F080C00792
:2034EA00C006C005C0041231DE90003375F0001236FA90003375F0001230CAD004D005D03B
:20350A0006D00790007EE0F5F0A3E045F0601590460275F0801231DE90446875F080123182
:20352A00DE02338690003375F000C007C006C005C0041225C6AA82AB83D004D005D006D004
:20354A0007740E5BF98A00ED24F84005E924F8500C90462875F0801231DE023386C3EA9E41
:20356A00EB9F50187444C0E07446C0E07480C0E01239B1158115811581023386900080E0A0
:20358A00FF900011ECF0900012E8F0900013EDF0900014E9F08F82122D6090008074A0F06A
:2035AA00023386122FAA9000FF122FB4123052122FAA122F830233867475C0E07446C0E0F6
:1035CA007480C0E01239B1158115811581023386E4
:20440500496E76616C69642063686172616374657220656E746572656420506C6561736582
:204425002072657472790A0D000A0D496E76616C696420626C6F636B206E6F2E0A0D00457A
:204445006E746572206461746120746F206265207772697474656E0A0D0064617461206993
:204465007320000A0D0057726F6E6720626C6F636B206E756D6265722E200A0D002A2A2AC9
:204485002A2A2A2A2A2A2A2A2A2A2A2A2A2A2A2A2A2A2A2A2A2A0A0D4D454E5520464F5228
:2044A5002054455354494E47204932432046554E4354494F4E530A0D5052455353205720C7
:2044C500464F5220575249544520425954450A0D5052455353205220464F522052414E448F
:2044E5004F4D20524541440A0D5052455353205320464F52204845582044554D500A0D50FF
:2045050052455353205820464F5220454550524F4D2052455345540A0D00454E544552209A
:204525004144445245535320544F204245205752495454454E202C414444524553532049FE
:204545004E434C5544455320424C4F434B204E554D42455220414E4420574F5244204144E0
:20456500525245535320544F47455448455220494E204845580A0D00454E5445522041442F
:20458500445245535320544F20424520524541442C4144445245535320494E434C55444599
:2045A5005320424C4F434B204E554D42455220414E4420574F52442041445252455353208C
:2045C500544F47455448455220696E204845580A0D00526561642076616C7565206973208C
:2045E500307825580A0D00456E74657220666972737420616464726573730A0D00457272EE
:204605006F7220696E20696E70757400456E746572207365636F6E642061646472657373CD
:204625000A0D00426C6F636B206E756D626572732061726520696E76616C69640A0D004998
:204645006E697469616C20616464726573732069732067726561746572207468616E20538A
:2046650065636F6E6420616464726573730A0D004E6F2066756E6374696F6E206174746102
:104685006368656420746F20696E7075740D0A0027
:0446A0000000A00076
:06259900E478FFF6D8FD16
:2035DA00AFF0AE83E582900037F0EEA3F0EFA3F090003AE4F0A3F0900037E0FDA3E0FEA3E7
:2035FA00E0FF8D828E838FF01243D3FCBC20028003BC09120DBD00010E900037EDF0EEA3C9
:20361A00F0EFA3F080DC900037EDF0EEA3F0EFA3F08D828E838FF01243D3FC90003CE4BCEC
:20363A002D0104F0BC2D028003BC2B0E90003774012DF0E43EA3F0EFA3F0900037E0FDA314
:20365A00E0FEA3E0FF8D828E838FF01243D3FCBC3000405DEC24C6405890003AE0FBA3E00E
:20367A00FC900043EBF0ECA3F090000AC007C006C005123908AB82AC83D005D006D0078D5D
:20369A00828E838FF01243D3FAA3AD82AE83900037EDF0EEA3F0EFA3F08A017A00E924D050
:2036BA00F9EA34FFFA90003AE92BF0EA3CA3F08094900037EDF0EEA3F0EFA3F090003CE0F2
:2036DA00601190003AE0FEA3E0FFC3E49EFEE49FFF800890003AE0FEA3E0FF8E828F83227A
:202577007904E94400601B7A019046A0787E75A000E493F2A308B8000205A0D9F4DAF275A2
:02259700A0FFA3
:2036FA00AFF0AE83E58290003DF0EEA3F0EFA3F0900040E4F0A3F01231C8AE82AF83BE084F
:20371A0002800DBE0A02805FBE0D02805A0237A9900040E0FDA3E0FF900040E0F5F0A3E087
:20373A0045F060D3900008C007C0051231A39000201231A39000081231A3D005D0079000AD
:20375A003DE024FFFAA3E034FFFBA3E0FC90003DEAF0EBA3F0ECA3F01DBDFF011F90004078
:20377A00EDF0EFA3F0809090000D1231A390000A1231A390003DE0FCA3E0FDA3E0FF8C8204
:20379A008D838FF0E41237E48C828D838FF02290003DE0FCA3E0FDA3E0FF8C828D838FF068
:2037BA00EE1237E490003D74012CF0E43DA3F0EFA3F0900040E02401F0A3E03400F07F0055
:0A37DA008E828F831231A302371193
:1B37E40020F71130F6138883A88220F509F6A8837583002280FEF280F5F022E4
:2037FF00C00C85810CE50C24FDF8868318868218E493A324DB600C242560051238ED80F0A7
:20381F00023905D2D5E493A3C083C082B4731486F0188683188682181243D36054A3123830
:20383F00ED80F5B4630818E6181238ED8043B46417E630E74618E6F42401F608E6F4340043
:20385F00F6742D1238ED8033B4782D868318868218E41238DEE5831238DDE5831238DEE51E
:20387F00821238DDE5821238DE30D50574301238EDD082D08302380FB475F6E6FA18E6F928
:20389F00187C107D271238C8FF7CE87D031238C8C4F5837C647D001238C84283E975F00AF2
:2038BF0084C445F0F582EF80A97B000BC3E99CF9EA9DFA50F61BE92CF9EA3DFAEB22C454E0
:2038DF000F700320D51FC2D52490D43440D4C083C082C0F0F582E8C0E01231A3D0E0F8D03A
:0938FF00F0D082D08322D00C220B
:20390800AA83AB828BF0900043E0A4F8A9F08AF0E0A429F98BF0A3E0A429F5838882222231
:20259F007800E84400600A790175A000E4F309D8FC787DE84400600C7901900001E4F0A3BC
:0425BF00D8FCD9FA71
:20392800AF83E582900045F0EFA3F0900045E0FEA3E0BE61004017EE24854012900045E055
:1B394800FEA3E0FF74E02EFE74FF3FFF8008900045E0FEA3E0FF8E828F8322B2
:20396300C00C85810C7E008E831231A3D00C22AFF0AE83E582900048F0EEA3F0EFA3F09061
:203983000048E0FDA3E0FEA3E0FF900047E0FC90005CE4F0A3F0A3F090005FEDF0EEA3F016
:2039A300EFA3F0900062ECF0903963023ABAC00CE581F50C24FBFF90005CE4F0A3F0A3F05B
:2039C300E50C24FBF890005FE6F008E6A3F008E6A3F0900062EFF0903963123ABAD00C2214
:2039E300E582900058F0E0FF90004EE0C0E0A3E0C0E0A3E0C0E01239FE800D90004CE0C0B0
:203A0300E0A3E0C0E08F8222158115811581900056E02401F0A3E03400F022E582900059B7
:203A2300F0E02430FF24C6500D74072FFF90004BE060034307208F820239E3E58290005A68
:203A4300F0E0FFC4540FF582C007123A1ED00753070F8F82023A1EE58290005BF0900051F7
:203A6300E0FCA3E0FDA3E0FEA3E0FF900055E0FB75172090005BE0F98B00E828F8EF2354BB
:203A83000148FBEC2CFCED33FDEE33FEEF33FFC3EB994007EBC399FB430401E51714FA8AC2
:203AA3001770D5900051ECF0EDA3F0EEA3F0EFA3F0900055EBF022AF83E582900063F0EF1A
:203AC300A3F0900063E0FEA3E0FF90004CEEF0EFA3F090005CE0FDA3E0FEA3E0FF90004E17
:203AE300EDF0EEA3F0EFA3F0900056E4F0A3F090005FE0FDA3E0FEA3E0FF8D828E838FF028
:203B03001243D3FC90005F74012DF0E43EA3F0EFA3F0EC70030243AFBC250280030243A721
:203B2300900065E4F0900066F0900067F0900068F0900069F090006AF090006BF090006C4A
:203B4300F090006EF090006FF0A3F090007114F0A3F090005FE0FDA3E0FEA3E0FF8D828EFE
:203B6300838FF01243D3FBA3AD82AE8390005FEDF0EEA3F0EFA3F0900075EBF0BB25088BF8
:203B8300821239E3023AF2BB30005003023C53EB24C65003023C53900071E0F50DA3E0F561
:203BA3000E74FFB50D63B50E60C005C006C00790006FE0FAA3E0FF900043EAF0EFA3F090CD
:203BC300000AC005C003123908AE82AF83D003D0058B027D00EA2EFEED3FFFEE24D0FEEFD9
:203BE30034FFFF90006FEEF0EFA3F0D007D006D00590006FE0F5F0A3E045F06003023B6033
:203C03009000667401F0023B60C005C006C007900043E50DF0E50EA3F090000AC006C005F7
:203C2300C003123908AA82AF83D003D005D0067E00EB2AFAEE3FFFEA24D0FAEF34FFFF904D
:203C43000071EAF0EFA3F0D007D006D005023B60900075E0FBBB2E2FC005C006C00790009B
:203C630071E0FAA3E0FFBAFF05BFFF028009D007D006D005023B60D007D006D005900071CB
:203C8300E4F0A3F0023B60BB61004014EB2485400F90007574DF5BF090004B7401F0800562
:203CA30090004BE4F0900075E0FBBB20028075BB2B028067BB2D028059BB4202806FBB4322
:203CC30002807CBB4403023F4ABB4603023F70BB4803023B60BB4903023F4ABB4A03023B27
:203CE30060BB4C028050BB4F03023F58BB5003023EB8BB53028077BB5403023B60BB550313
:203D0300023F60BB5803023F68BB5A03023B60023F789000657401F0023B6090006774016F
:203D2300F0023B609000687401F0023B6090006A7401F0023B6090006B7401F0023B609070
:203D4300006AE0600E900062E014F9F0900075E7F0800F900062E024FEFFF08F01900075F6
:203D6300E7F0900075E0F5821239E3023F87900062E024FDFFF08F018705098706098707EC
:203D83001919900051EDF0EEA3F0EFA3F08D828E838FF01243BB85820D85830E900071E073
:203DA300FAA3E0FDBAFF0DBDFF0A900071E50DF0E50EA3F0900065E0704B90006FE0FAA385
:203DC300E0FDC3E50D9AE50E9D503A90006FEAC3950DF0ED950EA3F090006FE0FAA3E0FDE0
:203DE3008A068D071ABAFF011DEE4F6010758220C005C0021239E3D002D00580E390006F29
:203E0300EAF0EDA3F0900071E0F510A3E0F511900051E0FAA3E0FDA3E0FF8A828D838FF07E
:203E23001243D3F50F603CC3E4951074808511F063F08095F0502C151074FFB51002151198
:203E4300850F821239E3900051E0FAA3E0FDA3E0FF0ABA00010D900051EAF0EDA3F0EFA3BF
:203E6300F080AC900065E07003023F8790006FE0FEA3E0FFC3E50D9EE50E9F4003023F87C4
:203E830090006FEEC3950DF0EF950EA3F090006FE0FEA3E0FF8E028F051EBEFF011FEA4D03
:203EA3007003023F7F758220C007C0061239E3D006D00780E0900062E024FDFDF08D0187F8
:203EC300120987130987141919900051E512F0E513A3F0E514A3F0900053E0FDBD80004038
:203EE300089000757443F08020BD600040089000757450F08013BD400040089000757449B3
:203F0300F080069000757458F0900075E0FDF582C0051239E375823A1239E375823012394A
:203F2300E37582781239E3D005BD4902800EBD50028009900052E0F582123A3E900051E077
:203F4300F582123A3E803D9000697401F090006E740AF0802F90006E7408F0802790006E18
:203F6300740AF0801F90006E7410F0801790006C7401F0800F8B821239E3800890006FEE88
:203F8300F0EFA3F090006CE06071900062E024FCFFF08F0187030987050987060987071929
:203FA3001919900051EBF0EDA3F0EEA3F0EFA3F09000517495F07446A3F07480A3F090004F
:203FC30051E0F512A3E0F513A3E0F51474012512FAE43513FBAF14900051EAF0EBA3F0EFD7
:203FE300A3F08512828513838514F01243D3FF7003023AF28F821239E380C390006EE070D6
:2040030003023AF290006AE06047900062E014F9F087077E007D007B00900051EFF0EEA3C7
:20402300F0EDA3F0EBA3F0900069E060030240CA900051E0FBA3E0A3E0A3E07D007E007F88
:2040430000900051EBF0EDA3F0EEA3F0EFA3F0807690006BE06028900062E024FCFFF08F55
:20406300018703098705098706098707191919900051EBF0EDA3F0EEA3F0EFA3F08048900E
:204083000062E024FEFFF08F01870609870719EF3395E0FDFB900051EEF0EFA3F0EDA3F0AD
:2040A300EBA3F0900069E0701E900051E0FBA3E0FDA3E0A3E07E007F00900051EBF0EDA38D
:2040C300F0EEA3F0EFA3F0900069E06041900051E0FBA3E0FDA3E0FEA3E0FF30E72B90005F
:2040E30051E0FBA3E0FDA3E0FEA3E0FFC3E49BFBE49DFDE49EFEE49FFF900051EBF0EDA305
:20410300F0EEA3F0EFA3F08005900069E4F090006D7401F090006EE0F51075157B75160082
:20412300E4F50DF50E900055E4F0851082123A5A90006DE07026900055E0C4F512851582FE
:20414300851683E0FFE5124207851582851683EFF0151574FFB515021516800C900055E021
:20416300FF851582851683F0050DE4B50D02050E90006DE0B40100E433F0900051E0FAA34F
:20418300E0FBA3E0FEA3E0FFEA4B4E4F709790007CE515F0E516A3F0900073E50DF0E50E09
:2041A300A3F090006FE0F5F0A3E045F0700990006F7401F0E4A3F0900066E0FFE07047909D
:2041C3000065E07041850D15850E1690006FE0FAA3E0FBC007AF150F8F067F00C3EE9AEF57
:2041E3009BD0075019758220C007C003C0021239E3D002D003D0071ABAFF011B80D5900000
:204203006FEAF0EBA3F0900069E0602075822DC0071239E3D00790006FE024FFFDA3E034D5
:20422300FFFE90006FEDF0EEA3F08056900073E0F5F0A3E045F0604A900067E060207582D3
:204243002BC0071239E3D00790006FE024FFFDA3E034FFFE90006FEDF0EEA3F08024900020
:2042630068E0601E758220C0071239E3D00790006FE024FFFDA3E034FFFE90006FEDF0EE15
:20428300A3F0900065E07048900073E0F515A3E0F51690006FE0FAA3E0FBC0078A068B0740
:2042A3001ABAFF011BC3E5159EE5169FD0075053EF60067D307E0080047D207E008D82C0AF
:2042C30007C003C0021239E3D002D003D00780CA90006FE0FEA3E0FF900073E0F515A3E08C
:2042E300F516C3E5159EE5169F500F90006FEEC39515F0EF9516A3F0801190006FE4F0A3DE
:20430300F0800890006FEAF0EBA3F090007CE0FEA3E0FF900073E0F515A3E0F516AA15AD78
:2043230016151574FFB515021516EA4D604590006DE0B40100E433F090006DE070140EBE2E
:2043430000010F8E828F83E0C4540FFD900055F0800E8E828F83E0FD53050F900055EDF099
:20436300900055E0F582C007C006123A1ED006D00780AA900065E07003023AF290006FE0DB
:20438300FEA3E0FF8E038F051EBEFF011FEB4D7003023AF2758220C007C0061239E3D006F9
:1843A300D00780E08C821239E3023AF2900056E0FEA3E08E82F5832270
:0B4695003C4E4F20464C4F41543E006D
:1843BB00AA82AB831243D36003A380F8C3E5829AF582E5839BF5832212
:0D256A007581171243EFE5826003022567BB
:1C43D30020F71430F6148883A88220F507E6A88375830022E280F7E49322E022F9
:0443EF0075820022B1
:00000001FF
