:1025C600AFF0AE83E582900001F0EEA3F0EFA3F04A
:1025D600900001E0FDA3E0FEA3E0FF8D828E838FD5
:1025E600F01243BBAE82AF83BE0105BF000280136B
:1025F600BE0205BF00028031BE0305BF0002807A1D
:102606000226C49000047430F0900005F09000019A
:10261600E0FBA3E0FCA3E0FD8B828C838DF01243EC
:10262600D3FB900006F00226C4C007C00674F3C0B0
:10263600E07443C0E07480C0E01239B115811581A1
:102646001581D006D0079000047430F0900001E0A8
:10265600FBA3E0FCA3E0FD8B828C838DF01243D3B9
:10266600FA900005F00BBB00010C8B828C838DF079
:102676001243D3FB900006F08044900001E0FBA3D8
:10268600E0FCA3E0FD8B828C838DF01243D3900097
:1026960004F074012BF8E43CF98D02888289838A60
:1026A600F01243D3F8900005F074022BFBE43CFCD7
:1026B6008B828C838DF01243D3FB900006F0900042
:1026C60008E4F0A3F07C007D00C3EC9403ED648085
:1026D60094804003022C4EEC2404F582ED3400F580
:1026E60083E0FB7A008B828A83C007C006C005C0E0
:1026F60004123928AA82AB83D004D005D006D007AD
:10270600C3EA9430EB648094805003022C46C37471
:10271600469A74808BF063F08095F05003022C4645
:10272600EA24D0FA240A83F582EA241B83F583E49B
:10273600736568BC1064B80C60B4084646464646E5
:1027460046465CB00458ACFA2727272828282929AA
:10275600292A2C2C2C2C2C2C2C2A2A2B2B2B2B02EA
:102766002C46EC4D7012900008E0FAA3E0FB9000B6
:1027760008EAF074012BA3F08C028D03BC0116BD90
:102786000013900008E0F8A3E0F990000874102800
:10279600F0E439A3F0BA0205BB00028003022C461E
:1027A600900008E0FAA3E0FB90000874012AF0E428
:1027B6003BA3F0022C46EC4D7012900008E0FAA301
:1027C600E0FB900008EAF074022BA3F08C028D0364
:1027D600BC0116BD0013900008E0F8A3E0F99000D4
:1027E60008742028F0E439A3F0BA0205BB00028081
:1027F60003022C46900008E0FAA3E0FB9000087460
:10280600022AF0E43BA3F0022C46EC4D7012900035
:1028160008E0FAA3E0FB900008EAF074032BA3F0AB
:102826008C028D03BC0116BD0013900008E0F8A3CE
:10283600E0F9900008743028F0E439A3F0BA0205F4
:10284600BB00028003022C46900008E0FAA3E0FBDE
:1028560090000874032AF0E43BA3F0022C46EC4DEA
:102866007012900008E0FAA3E0FB900008EAF0740A
:10287600042BA3F08C028D03BC0116BD001390003F
:1028860008E0F8A3E0F9900008744028F0E439A3C2
:10289600F0BA0205BB00028003022C46900008E055
:1028A600FAA3E0FB90000874042AF0E43BA3F002CC
:1028B6002C46EC4D7012900008E0FAA3E0FB900065
:1028C60008EAF074052BA3F08C028D03BC0116BD3B
:1028D6000013900008E0F8A3E0F99000087450286F
:1028E600F0E439A3F0BA0205BB00028003022C46CD
:1028F600900008E0FAA3E0FB90000874052AF0E4D3
:102906003BA3F0022C46EC4D7012900008E0FAA3AF
:10291600E0FB900008EAF074062BA3F08C028D030E
:10292600BC0116BD0013900008E0F8A3E0F9900082
:1029360008746028F0E439A3F0BA0205BB000280EF
:1029460003022C46900008E0FAA3E0FB900008740E
:10295600062AF0E43BA3F0022C46EC4D70129000E0
:1029660008E0FAA3E0FB900008EAF074072BA3F056
:102976008C028D03BC0116BD0013900008E0F8A37D
:10298600E0F9900008747028F0E439A3F0BA020563
:10299600BB00028003022C46900008E0FAA3E0FB8D
:1029A60090000874072AF0E43BA3F0022C46EC4D95
:1029B6007012900008E0FAA3E0FB900008EAF074B9
:1029C600082BA3F08C028D03BC0116BD00139000EA
:1029D60008E0F8A3E0F9900008748028F0E439A331
:1029E600F0BA0205BB00028003022C46900008E004
:1029F600FAA3E0FB90000874082AF0E43BA3F00277
:102A06002C46EC4D7012900008E0FAA3E0FB900013
:102A160008EAF074092BA3F08C028D03BC0116BDE5
:102A26000013900008E0F8A3E0F9900008749028DD
:102A3600F0E439A3F0BA0205BB00028003022C467B
:102A4600900008E0FAA3E0FB90000874092AF0E47D
:102A56003BA3F0022C46EC4D7012900008E0FAA35E
:102A6600E0FB900008EAF0740A2BA3F08C028D03B9
:102A7600BC0116BD0013900008E0F8A3E0F9900031
:102A86000874A028F0E439A3F0BA0205BB0002805E
:102A960003022C46900008E0FAA3E0FB90000874BD
:102AA6000A2AF0E43BA3F0022C46EC4D701290008B
:102AB60008E0FAA3E0FB900008EAF0740B2BA3F001
:102AC6008C028D03BC0116BD0013900008E0F8A32C
:102AD600E0F990000874B028F0E439A3F0BA0205D2
:102AE600BB00028003022C46900008E0FAA3E0FB3C
:102AF600900008740B2AF0E43BA3F0022C46EC4D40
:102B06007012900008E0FAA3E0FB900008EAF07467
:102B16000C2BA3F08C028D03BC0116BD0013900094
:102B260008E0F8A3E0F990000874C028F0E439A39F
:102B3600F0BA0205BB00028003022C46900008E0B2
:102B4600FAA3E0FB900008740C2AF0E43BA3F00221
:102B56002C46EC4D7012900008E0FAA3E0FB9000C2
:102B660008EAF0740D2BA3F08C028D03BC0116BD90
:102B76000013900008E0F8A3E0F990000874D0284C
:102B8600F0E439A3F0BA0205BB00028003022C462A
:102B9600900008E0FAA3E0FB900008740D2AF0E428
:102BA6003BA3F0022C46EC4D7012900008E0FAA30D
:102BB600E0FB900008EAF0740E2BA3F08C028D0364
:102BC600BC0116BD0013900008E0F8A3E0F99000E0
:102BD6000874E028F0E439A3F0BA0264BB006190FF
:102BE6000008E0FAA3E0FB900008740E2AF0E43B2C
:102BF600A3F0804CEC4D7012900008E0FAA3E0FBC5
:102C0600900008EAF0740F2BA3F08C028D03BC0130
:102C160016BD0013900008E0F8A3E0F990000874D0
:102C2600F028F0E439A3F0BA0216BB0013900008AE
:102C3600E0FAA3E0FB900008740F2AF0E43BA3F04F
:102C46000CBC00010D0226CFC3EE9403EF64809402
:102C560080500E900008E0FEA3E07F008E828F83F6
:0D2C660022900008E0FEA3E08E82F583229C
:1043F30054776F20646967697473206465746563B7
:044403007465640078
:102C7300E58290000CF0122FAA90000CE0FE7F007A
:102C83008E828F83C007C006122FB4122F67900065
:102C93000AE0FD7C008D828C83122FB4122F679083
:102CA300000BE0FD7C008D828C83122FB4122F6702
:102CB300122F83122F8FD006D00790000D7401F0CE
:102CC300E4A3F090000DE0F5F0A3E045F0602CC024
:102CD30007C006122FAAD006D0078E828F83C007A3
:102CE300C006122FB4E5828583F090000DF0E5F065
:102CF300A3F0122F67D006D00780C8022F83E58286
:102D0300900010F0122FAA900010E0FF7E008F8237
:102D13008E83C007C006122FB4122F6790000FE0F6
:102D2300FD7C008D828C83122FB4122F67122FAA81
:102D3300D006D0070FBF00010E8F828E83122FB4EF
:102D430012305EAE82AF83C007C006123052122F1C
:102D530083122F8FD006D0078E828F8322E5829035
:102D63000015F0122FAA9000FF122FB41230521246
:102D73002FAA122F83122FAA900015E0FF7E008F37
:102D8300828E83C007C006122FB4122F67900011E2
:102D9300E0FDFB7C008B828C83C005122FB4122FC5
:102DA30067122FAAD005D006D0070FBF00010E8FE0
:102DB300828E83C005122FB4D005900013E0FEE489
:102DC300FFFCED4207EC4206900014E0FC7D00900E
:102DD3000012E07A004205EA4204C007C006C005BB
:102DE300C0047407C0E07444C0E07480C0E01239CA
:102DF300B1158115811581D004D005D006D0077B8C
:102E030000C3EF9DEE9C4003022EB78B01E9540FE4
:102E13007056C007C006C005C004C0037407C0E0F5
:102E23007444C0E07480C0E01239B1158115811576
:102E330081D003D004D005D006D007C007C006C098
:102E430005C004C003C007C006740AC0E07444C0D0
:102E5300E07480C0E01239B1E58124FBF581D00331
:102E6300D004D005D006D007C007C006C005C004F3
:102E7300C00312305EA982AA83C002C0011230438C
:102E8300D001D002D0030BC003C001C002740FC035
:102E9300E07444C0E07480C0E01239B1E58124FBE2
:102EA300F581D003D004D005D006D0070FBF0001B1
:102EB3000E022E04C007C006C00312305EAC82AD02
:102EC30083D003C005C004C003123052122F83D035
:102ED30003D004D005D006D007EB540F7046C007CB
:102EE300C006C005C0047407C0E07444C0E0748029
:102EF300C0E01239B1158115811581D004D005D0F8
:102F030006D007C005C004C007C0067414C0E0742F
:102F130044C0E07480C0E01239B1E58124FBF5813F
:102F2300D004D005C004C005740FC0E07444C0E0F1
:102F33007480C0E01239B1E58124FBF5817407C0C8
:102F4300E07444C0E07480C0E01239B1158115818A
:102F53001581122FAA9000FF122FB4123052122F94
:042F6300AA022F830C
:104407000A0D002533583A00202558200025583A30
:0144170000A4
:102F6700740314B400FC22C294C295D295D2940281
:102F77002F67C295122F67C294022F67C295D2940A
:102F8700122F67D295022F677E207F03EE4F6012C4
:102F9700C007C006122F67D006D0071EBEFF011F4D
:102FA70080EA22D294C295122F67C29422AF83E59A
:102FB70082900016F0EFA3F07E007F00C3EE940826
:102FC700EF648094805057900016E0FCA3E0EC304B
:102FD700E713D295D294C007C006122F67D006D048
:102FE70007C2948011C295D294C007C006122F67FA
:102FF700D006D007C294C007C006122F67D006D0EC
:1030070007900016E0FCA3E0FDEC2CFCED33FD90EF
:103017000016ECF0EDA3F00EBE00A10F809ED29536
:1030270000D294A295E433FE7F00C007C006122F9A
:1030370067D006D007C2948E828F8322C295122F43
:1030470067D294122F67C294D29522D294122F6717
:10305700D295C294022F67900018E4F0A3F0D2959E
:103067007E007F00C3EE9408EF6480948050489000
:103077000018E0FCA3E0FDEC2CFCED33FD900018FC
:10308700ECF0EDA3F0D294C007C006122F679000B2
:1030970018E0FCA3E0FDA295E433FA7B009000184A
:1030A700EA4CF0EB4DA3F0C294122F67D006D0077D
:1030B7000EBE00B00F80AD900018E0FEA3E08E8238
:0330C700F583226C
:0325640002256AE3
:0325C30002256787
:03256700023383B9
:1030CA00AFF0AE83E58290001AF0EEA3F0EFA3F022
:1030DA0090007EE4F0A3F090001AE0FDA3E0FEA3C6
:1030EA00E0FF8D028E038F048D088E098F0A780007
:1030FA007900C002C003C004E82508FAE93509FBD3
:10310A00AC0A8A828B838CF01243D3F50BD004D09D
:10311A0003D002E50B70012274D0250B5006E50B93
:10312A0024C65054C002C003C004E82DFAE93EFB8D
:10313A008F048A828B838CF01243D3F50BC394617C
:10314A00D004D003D0024006E50B2499502AC005CA
:10315A00C006C007E82AFDE93BFE8C078D828E83F4
:10316A008FF01243D3F50BC39441D007D006D00594
:10317A00400EE50B24B9400808B80001090230FCEA
:10318A007418C0E07444C0E01237FF1581158190AD
:10319A00007E7401F0E4A3F022AF83E5829000215F
:1031AA00F0EFA3F03099FD3099FDE59830E1FB90FE
:1031BA000021E0FEA3E08E99C29990000022309887
:1031CA00FDE59830E0FB10980280FBAE997F008EF7
:1031DA00828F8322AFF0AE83E582900023F0EEA3C4
:1031EA00F0EFA3F0900023E0FDA3E0FEA3E0FF7B55
:1031FA00007C008D828E838FF01243D3FA60360DE5
:10320A00BD00010E900023EDF0EEA3F0EFA3F08ACB
:10321A00017A0089828A83C007C006C005C004C03B
:10322A00031231A3D003D004D005D006D0070BBBBC
:10323A0000C10C80BE900023EDF0EEA3F0EFA3F0E6
:10324A000BBB00010C8B828C832290000075F0006E
:10325A001236FA90000075F0000235DAAFF0AE834C
:10326A00E582900028F0EEA3F0EFA3F0900028E0AA
:10327A00FDA3E0FEA3E0FF8D828E838FF01225C6A8
:10328A00AE82AF837C00740E5FFDBD0800500890CB
:10329A000080E04DF0800990444175F0800231DEF3
:1032AA0090445775F080C0061231DE90001D75F00B
:1032BA00001236FA90001D75F0001230CAD006903E
:1032CA00007EE0F5F0A3E045F0703E90447275F0A0
:1032DA0080C0061231DE90001D75F0001231DE90BA
:1032EA00447B75F0801231DE90001D75F0001225C6
:1032FA00C6AD82D006900080E0FF90000AEEF09002
:10330A00000BEDF08F82022C7322AFF0AE83E582C0
:10331A0090002BF0EEA3F0EFA3F090002BE0FDA3BA
:10332A00E0FEA3E0FF8D828E838FF01225C6AE8267
:10333A00AF83740E5FFDBD07005008900080E04D1A
:10334A00F080069000817401F0900081E0600D9099
:10335A00447E75F0801231DE90FFFF22900080E0FB
:10336A00FF90000FEEF08F82122D01AE82AF839094
:10337A000081E4F08E828F8322122F6E900081E406
:10338A00F090449575F0801231DE1231C8AE82AFEA
:10339A0083900026EEF0EFA3F08E828F831231A382
:1033AA0090447B75F0801231DE900026E0FEA3E0A7
:1033BA00FF8E828F83123928AE82AF83BE5205BF39
:1033CA0000028055BE5306BF000302348ABE570569
:1033DA00BF0002800CBE5806BF00030235AD02359D
:1033EA00C290452C75F0801231DE90001D75F000F8
:1033FA001236FA90001D75F0001230CA90007EE075
:10340A00F5F0A3E045F0700890001DF5F012326661
:10341A0090008074A0F002338690458A75F080127D
:10342A0031DE90001D75F0001236FA90001D75F01D
:10343A00001230CA90007EE0F5F0A3E045F0703744
:10344A0090001DF5F0123314AE82AF8390002EEE79
:10345A00F0900081E0702090002EE0FF7E00C0070F
:10346A00C00674EFC0E07445C0E07480C0E0123951
:10347A00B1E58124FBF58190008074A0F0023386C7
:10348A0090460475F0801231DE90466D75F0801218
:10349A0031DE90002F75F0001236FA90002F75F089
:1034AA00001230CA90007EE0F5F0A3E045F0601506
:1034BA0090468375F0801231DE90447B75F080125D
:1034CA0031DE02338690002F75F0001225C6AE82D7
:1034DA00AF83740E5FFD8E0490469275F080C0072C
:1034EA00C006C005C0041231DE90003375F0001228
:1034FA0036FA90003375F0001230CAD004D005D0E5
:10350A0006D00790007EE0F5F0A3E045F060159044
:10351A00468375F0801231DE90447B75F08012315B
:10352A00DE02338690003375F000C007C006C0057E
:10353A00C0041225C6AA82AB83D004D005D006D017
:10354A0007740E5BF98A00ED24F84005E924F85067
:10355A000C9046A975F0801231DE023386C3EA9ECA
:10356A00EB9F501874C5C0E07446C0E07480C0E098
:10357A001239B1158115811581023386900080E0D8
:10358A00FF900011ECF0900012E8F0900013EDF0BB
:10359A00900014E9F08F82122D6090008074A0F0E0
:1035AA00023386122FAA9000FF122FB41230521241
:1035BA002FAA122F8302338674F6C0E07446C0E045
:1035CA007480C0E01239B1158115811581023386E4
:10441800496E76616C696420636861726163746572
:104428007220656E746572656420506C6561736591
:104438002072657472790A0D000A0D496E76616CF6
:10444800696420626C6F636B206E6F2E0A0D0045E5
:104458006E746572206461746120746F20626520D7
:104468007772697474656E0A0D00646174612069FD
:104478007320000A0D0057726F6E6720626C6F63BD
:104488006B206E756D6265722E200A0D002A2A2A2D
:104498002A2A2A2A2A2A2A2A2A2A2A2A2A2A0A0DB1
:1044A8004D454E5520464F522054455354494E478A
:1044B800204932432046554E4354494F4E530A0D26
:1044C8005052455353205720464F52205752495473
:1044D8004520425954450A0D505245535320522005
:1044E800464F522052414E444F4D20524541440AB6
:1044F8000D5052455353205320464F52204845589B
:104508002044554D500A0D0A0D505245535320581A
:1045180020464F5220454550524F4D205245534555
:10452800540A0D00454E54455220414444524553C7
:104538005320544F204245205752495454454E2049
:104548002C4144445245535320494E434C5544450D
:104558005320424C4F434B204E554D42455220412B
:104568004E4420574F524420414452524553532001
:10457800544F47455448455220494E204845580A0B
:104588000D00454E54455220414444524553532052
:10459800544F20424520524541442C414444524501
:1045A800535320494E434C5544455320424C4F43A6
:1045B8004B204E554D42455220414E4420574F52B4
:1045C80044204144525245535320544F4745544880
:1045D8004552205345504552415445442020696E68
:1045E800204845580A0D00526561642076616C7553
:1045F8006520697320307825580A0D00454E5445CA
:1046080052204144445245535320544F20424520A0
:10461800524541442C4144445245535320494E434A
:104628004C5544455320424C4F434B204E554D4228
:10463800455220414E4420574F5244204144525243
:1046480045535320544F47455448455220534550ED
:10465800455241544544204259203020696E204833
:1046680045580A0D00456E74657220666972737448
:1046780020616464726573730A0D004572726F720B
:1046880020696E20696E70757400456E74657220BD
:104698007365636F6E6420616464726573730A0D79
:1046A80000426C6F636B206E756D6265727320617A
:1046B800726520696E76616C69640A0D00496E69DD
:1046C8007469616C20616464726573732069732016
:1046D80067726561746572207468616E20536563E2
:1046E8006F6E6420616464726573730A0D004E6FA7
:1046F8002066756E6374696F6E2061747461636897
:0E470800656420746F20696E7075740D0A0070
:044721000000A000F4
:06259900E478FFF6D8FD16
:1035DA00AFF0AE83E582900037F0EEA3F0EFA3F0F0
:1035EA0090003AE4F0A3F0900037E0FDA3E0FEA3D8
:1035FA00E0FF8D828E838FF01243D3FCBC200280C1
:10360A0003BC09120DBD00010E900037EDF0EEA3C8
:10361A00F0EFA3F080DC900037EDF0EEA3F0EFA31B
:10362A00F08D828E838FF01243D3FC90003CE4BC71
:10363A002D0104F0BC2D028003BC2B0E90003774C0
:10364A00012DF0E43EA3F0EFA3F0900037E0FDA3D4
:10365A00E0FEA3E0FF8D828E838FF01243D3FCBC81
:10366A003000405DEC24C6405890003AE0FBA3E0ED
:10367A00FC900043EBF0ECA3F090000AC007C006F0
:10368A00C005123908AB82AC83D005D006D0078DAD
:10369A00828E838FF01243D3FAA3AD82AE83900059
:1036AA0037EDF0EEA3F0EFA3F08A017A00E924D017
:1036BA00F9EA34FFFA90003AE92BF0EA3CA3F080E9
:1036CA0094900037EDF0EEA3F0EFA3F090003CE009
:1036DA00601190003AE0FEA3E0FFC3E49EFEE49F7F
:1036EA00FF800890003AE0FEA3E0FF8E828F8322DB
:102577007904E94400601B7A01904721787E75A0B1
:1025870000E493F2A308B8000205A0D9F4DAF275C3
:02259700A0FFA3
:1036FA00AFF0AE83E58290003DF0EEA3F0EFA3F0C9
:10370A00900040E4F0A3F01231C8AE82AF83BE0845
:10371A0002800DBE0A02805FBE0D02805A0237A9DE
:10372A00900040E0FDA3E0FF900040E0F5F0A3E048
:10373A0045F060D3900008C007C0051231A390007D
:10374A00201231A39000081231A3D005D0079000AF
:10375A003DE024FFFAA3E034FFFBA3E0FC90003D28
:10376A00EAF0EBA3F0ECA3F01DBDFF011F900040AF
:10377A00EDF0EFA3F0809090000D1231A390000AB3
:10378A001231A390003DE0FCA3E0FDA3E0FF8C8290
:10379A008D838FF0E41237E48C828D838FF0229030
:1037AA00003DE0FCA3E0FDA3E0FF8C828D838FF057
:1037BA00EE1237E490003D74012CF0E43DA3F0EFE3
:1037CA00A3F0900040E02401F0A3E03400F07F0071
:1037DA008E828F831231A302371120F71130F6132C
:1037EA008883A88220F509F6A8837583002280FEC3
:1037FA00F280F5F022C00C85810CE50C24FDF886D8
:10380A008318868218E493A324DB600C24256005C0
:10381A001238ED80F0023905D2D5E493A3C083C0F3
:10382A0082B4731486F0188683188682181243D3DA
:10383A006054A31238ED80F5B4630818E6181238FC
:10384A00ED8043B46417E630E74618E6F42401F63F
:10385A0008E6F43400F6742D1238ED8033B4782D6E
:10386A00868318868218E41238DEE5831238DDE58D
:10387A00831238DEE5821238DDE5821238DE30D571
:10388A000574301238EDD082D08302380FB475F641
:10389A00E6FA18E6F9187C107D271238C8FF7CE88A
:1038AA007D031238C8C4F5837C647D001238C8428F
:1038BA0083E975F00A84C445F0F582EF80A97B009C
:1038CA000BC3E99CF9EA9DFA50F61BE92CF9EA3D8B
:1038DA00FAEB22C4540F700320D51FC2D52490D40A
:1038EA003440D4C083C082C0F0F582E8C0E012310F
:1038FA00A3D0E0F8D0F0D082D08322D00C22AA83C1
:10390A00AB828BF0900043E0A4F8A9F08AF0E0A41F
:0E391A0029F98BF0A3E0A429F58388822222EC
:10259F007800E84400600A790175A000E4F309D8D7
:1025AF00FC787DE84400600C7901900001E4F0A311
:0425BF00D8FCD9FA71
:10392800AF83E582900045F0EFA3F0900045E0FEFC
:10393800A3E0BE61004017EE24854012900045E0E8
:10394800FEA3E0FF74E02EFE74FF3FFF80089000A6
:1039580045E0FEA3E0FF8E828F8322C00C85810C98
:103968007E008E831231A3D00C22AFF0AE83E582A5
:10397800900048F0EEA3F0EFA3F0900048E0FDA31C
:10398800E0FEA3E0FF900047E0FC90005CE4F0A3B9
:10399800F0A3F090005FEDF0EEA3F0EFA3F090003D
:1039A80062ECF0903963023ABAC00CE581F50C2458
:1039B800FBFF90005CE4F0A3F0A3F0E50C24FBF817
:1039C80090005FE6F008E6A3F008E6A3F090006236
:1039D800EFF0903963123ABAD00C22E58290005881
:1039E800F0E0FF90004EE0C0E0A3E0C0E0A3E0C03C
:1039F800E01239FE800D90004CE0C0E0A3E0C0E08A
:103A08008F8222158115811581900056E02401F0DE
:103A1800A3E03400F022E582900059F0E02430FF62
:103A280024C6500D74072FFF90004BE06003430736
:103A3800208F820239E3E58290005AF0E0FFC454F7
:103A48000FF582C007123A1ED00753070F8F820264
:103A58003A1EE58290005BF0900051E0FCA3E0FD87
:103A6800A3E0FEA3E0FF900055E0FB75172090004F
:103A78005BE0F98B00E828F8EF23540148FBEC2CB5
:103A8800FCED33FDEE33FEEF33FFC3EB994007EB5C
:103A9800C399FB430401E51714FA8A1770D59000FF
:103AA80051ECF0EDA3F0EEA3F0EFA3F0900055EB8E
:103AB800F022AF83E582900063F0EFA3F0900063FB
:103AC800E0FEA3E0FF90004CEEF0EFA3F090005C66
:103AD800E0FDA3E0FEA3E0FF90004EEDF0EEA3F0C2
:103AE800EFA3F0900056E4F0A3F090005FE0FDA390
:103AF800E0FEA3E0FF8D828E838FF01243D3FC900B
:103B0800005F74012DF0E43EA3F0EFA3F0EC700326
:103B18000243AFBC250280030243A7900065E4F08E
:103B2800900066F0900067F0900068F0900069F0EF
:103B380090006AF090006BF090006CF090006EF0CE
:103B480090006FF0A3F090007114F0A3F090005F64
:103B5800E0FDA3E0FEA3E0FF8D828E838FF0124389
:103B6800D3FBA3AD82AE8390005FEDF0EEA3F0EF40
:103B7800A3F0900075EBF0BB25088B821239E302A5
:103B88003AF2BB30005003023C53EB24C650030208
:103B98003C53900071E0F50DA3E0F50E74FFB50DF0
:103BA80063B50E60C005C006C00790006FE0FAA3B9
:103BB800E0FF900043EAF0EFA3F090000AC005C0D0
:103BC80003123908AE82AF83D003D0058B027D0083
:103BD800EA2EFEED3FFFEE24D0FEEF34FFFF90000B
:103BE8006FEEF0EFA3F0D007D006D00590006FE09D
:103BF800F5F0A3E045F06003023B609000667401B5
:103C0800F0023B60C005C006C007900043E50DF018
:103C1800E50EA3F090000AC006C005C003123908DB
:103C2800AA82AF83D003D005D0067E00EB2AFAEE35
:103C38003FFFEA24D0FAEF34FFFF900071EAF0EF7B
:103C4800A3F0D007D006D005023B60900075E0FBDA
:103C5800BB2E2FC005C006C007900071E0FAA3E094
:103C6800FFBAFF05BFFF028009D007D006D00502C2
:103C78003B60D007D006D005900071E4F0A3F002B5
:103C88003B60BB61004014EB2485400F90007574C5
:103C9800DF5BF090004B7401F0800590004BE4F07E
:103CA800900075E0FBBB20028075BB2B028067BBD0
:103CB8002D028059BB4202806FBB4302807CBB440B
:103CC80003023F4ABB4603023F70BB4803023B6006
:103CD800BB4903023F4ABB4A03023B60BB4C02801C
:103CE80050BB4F03023F58BB5003023EB8BB5302C0
:103CF8008077BB5403023B60BB5503023F60BB584F
:103D080003023F68BB5A03023B60023F789000659C
:103D18007401F0023B609000677401F0023B609010
:103D280000687401F0023B6090006A7401F0023B85
:103D38006090006B7401F0023B6090006AE0600ED6
:103D4800900062E014F9F0900075E7F0800F9000A1
:103D580062E024FEFFF08F01900075E7F090007597
:103D6800E0F5821239E3023F87900062E024FDFF0C
:103D7800F08F0187050987060987071919900051EF
:103D8800EDF0EEA3F0EFA3F08D828E838FF0124357
:103D9800BB85820D85830E900071E0FAA3E0FDBA21
:103DA800FF0DBDFF0A900071E50DF0E50EA3F09040
:103DB8000065E0704B90006FE0FAA3E0FDC3E50DED
:103DC8009AE50E9D503A90006FEAC3950DF0ED9577
:103DD8000EA3F090006FE0FAA3E0FD8A068D071AA3
:103DE800BAFF011DEE4F6010758220C005C0021297
:103DF80039E3D002D00580E390006FEAF0EDA3F03C
:103E0800900071E0F510A3E0F511900051E0FAA3DD
:103E1800E0FDA3E0FF8A828D838FF01243D3F50F74
:103E2800603CC3E4951074808511F063F08095F0D0
:103E3800502C151074FFB510021511850F82123918
:103E4800E3900051E0FAA3E0FDA3E0FF0ABA000105
:103E58000D900051EAF0EDA3F0EFA3F080AC9000D4
:103E680065E07003023F8790006FE0FEA3E0FFC3A8
:103E7800E50D9EE50E9F4003023F8790006FEEC35D
:103E8800950DF0EF950EA3F090006FE0FEA3E0FF14
:103E98008E028F051EBEFF011FEA4D7003023F7F91
:103EA800758220C007C0061239E3D006D00780E02B
:103EB800900062E024FDFDF08D0187120987130947
:103EC80087141919900051E512F0E513A3F0E514D1
:103ED800A3F0900053E0FDBD800040089000757489
:103EE80043F08020BD600040089000757450F08059
:103EF80013BD400040089000757449F0800690009A
:103F0800757458F0900075E0FDF582C0051239E32C
:103F180075823A1239E37582301239E37582781264
:103F280039E3D005BD4902800EBD500280099000DA
:103F380052E0F582123A3E900051E0F582123A3E84
:103F4800803D9000697401F090006E740AF0802F33
:103F580090006E7408F0802790006E740AF0801F3D
:103F680090006E7410F0801790006C7401F0800F50
:103F78008B821239E3800890006FEEF0EFA3F09087
:103F8800006CE06071900062E024FCFFF08F018714
:103F98000309870509870609870719191990005128
:103FA800EBF0EDA3F0EEA3F0EFA3F0900051741640
:103FB800F07447A3F07480A3F0900051E0F512A3C9
:103FC800E0F513A3E0F51474012512FAE43513FBA8
:103FD800AF14900051EAF0EBA3F0EFA3F085128242
:103FE8008513838514F01243D3FF7003023AF28FCE
:103FF800821239E380C390006EE07003023AF290B7
:10400800006AE06047900062E014F9F087077E00DC
:104018007D007B00900051EFF0EEA3F0EDA3F0EBF4
:10402800A3F0900069E060030240CA900051E0FBF1
:10403800A3E0A3E0A3E07D007E007F00900051EBA9
:10404800F0EDA3F0EEA3F0EFA3F0807690006BE024
:104058006028900062E024FCFFF08F018703098745
:1040680005098706098707191919900051EBF0ED22
:10407800A3F0EEA3F0EFA3F08048900062E024FEE6
:10408800FFF08F01870609870719EF3395E0FDFBDD
:10409800900051EEF0EFA3F0EDA3F0EBA3F0900049
:1040A80069E0701E900051E0FBA3E0FDA3E0A3E0EF
:1040B8007E007F00900051EBF0EDA3F0EEA3F0EF4F
:1040C800A3F0900069E06041900051E0FBA3E0FD9F
:1040D800A3E0FEA3E0FF30E72B900051E0FBA3E054
:1040E800FDA3E0FEA3E0FFC3E49BFBE49DFDE49E8B
:1040F800FEE49FFF900051EBF0EDA3F0EEA3F0EF8C
:10410800A3F08005900069E4F090006D7401F090D0
:10411800006EE0F51075157B751600E4F50DF50ECB
:10412800900055E4F0851082123A5A90006DE070C4
:1041380026900055E0C4F512851582851683E0FFA8
:10414800E5124207851582851683EFF0151574FF71
:10415800B515021516800C900055E0FF851582856F
:104168001683F0050DE4B50D02050E90006DE0B460
:104178000100E433F0900051E0FAA3E0FBA3E0FE75
:10418800A3E0FFEA4B4E4F709790007CE515F0E5F1
:1041980016A3F0900073E50DF0E50EA3F090006F04
:1041A800E0F5F0A3E045F0700990006F7401F0E4C9
:1041B800A3F0900066E0FFE07047900065E0704172
:1041C800850D15850E1690006FE0FAA3E0FBC00779
:1041D800AF150F8F067F00C3EE9AEF9BD0075019DB
:1041E800758220C007C003C0021239E3D002D00391
:1041F800D0071ABAFF011B80D590006FEAF0EBA335
:10420800F0900069E0602075822DC0071239E3D074
:104218000790006FE024FFFDA3E034FFFE90006FDD
:10422800EDF0EEA3F08056900073E0F5F0A3E045C2
:10423800F0604A900067E0602075822BC007123951
:10424800E3D00790006FE024FFFDA3E034FFFE9069
:10425800006FEDF0EEA3F08024900068E0601E751A
:104268008220C0071239E3D00790006FE024FFFDD9
:10427800A3E034FFFE90006FEDF0EEA3F090006530
:10428800E07048900073E0F515A3E0F51690006F14
:10429800E0FAA3E0FBC0078A068B071ABAFF011BE6
:1042A800C3E5159EE5169FD0075053EF60067D3095
:1042B8007E0080047D207E008D82C007C003C0027E
:1042C8001239E3D002D003D00780CA90006FE0FE15
:1042D800A3E0FF900073E0F515A3E0F516C3E5151C
:1042E8009EE5169F500F90006FEEC39515F0EF9561
:1042F80016A3F0801190006FE4F0A3F080089000FE
:104308006FEAF0EBA3F090007CE0FEA3E0FF9000E2
:1043180073E0F515A3E0F516AA15AD16151574FF8B
:10432800B515021516EA4D604590006DE0B4010020
:10433800E433F090006DE070140EBE00010F8E8221
:104348008F83E0C4540FFD900055F0800E8E828F4D
:1043580083E0FD53050F900055EDF0900055E0F512
:1043680082C007C006123A1ED006D00780AA900065
:1043780065E07003023AF290006FE0FEA3E0FF8E62
:10438800038F051EBEFF011FEB4D7003023AF27545
:104398008220C007C0061239E3D006D00780E08C1F
:1043A800821239E3023AF2900056E0FEA3E08E82D0
:0343B800F5832268
:0B4716003C4E4F20464C4F41543E00EB
:1043BB00AA82AB831243D36003A380F8C3E5829A2E
:0843CB00F582E5839BF58322D6
:0D256A007581171243EFE5826003022567BB
:1043D30020F71430F6148883A88220F507E6A88313
:1043E30075830022E280F7E49322E02275820022A3
:00000001FF
