:03000000020006F5
:03005F0002000399
:0300030002038372
:10006200AF83E582900001F0EFA3F03099FD309963
:10007200FDE59830E1FB900001E0FEA3E08E99C21D
:1000820099900000223098FDE59830E0FB1098022C
:1000920080FBAE997F008E828F8322AFF0AE83E524
:1000A20082900003F0EEA3F0EFA3F0900003E0FDD6
:1000B200A3E0FEA3E0FF7B007C008D828E838FF0A5
:1000C200120645FA60360DBD00010E900003EDF0F8
:1000D200EEA3F0EFA3F08A017A0089828A83C00737
:1000E200C006C005C004C003120062D003D004D011
:1000F20005D006D0070BBB00C10C80BE900003EDFB
:10010200F0EEA3F0EFA3F00BBB00010C8B828C830B
:100112002290000075F00012052090000075F0009A
:10012200020400740314B400FC22C294C295D29556
:10013200D294020125C295120125C294020125C260
:1001420095D294120125D2950201257E207F03EEDD
:100152004F6012C007C006120125D006D0071EBE8E
:10016200FF011F80EA22D294C295120125C2942275
:10017200AF83E582900006F0EFA3F07E007F00C31C
:10018200EE9408EF648094805057900006E0FCA340
:10019200E0EC30E713D295D294C007C006120125D5
:1001A200D006D007C2948011C295D294C007C0066F
:1001B200120125D006D007C294C007C0061201253D
:1001C200D006D007900006E0FCA3E0FDEC2CFCED8D
:1001D20033FD900006ECF0EDA3F00EBE00A10F80FF
:1001E2009ED29500D294A295E433FE7F00C007C050
:1001F20006120125D006D007C2948E828F8322C2B6
:1002020095120125D294120125C294D29522D2943C
:10021200120125D295C294020125900008E4F0A3B0
:10022200F0D2957E007F00C3EE9408EF6480948044
:100232005048900008E0FCA3E0FDEC2CFCED33FDFF
:10024200900008ECF0EDA3F0D294C007C0061201B2
:1002520025900008E0FCA3E0FDA295E433FA7B00C0
:10026200900008EA4CF0EB4DA3F0C294120125D0A5
:1002720006D0070EBE00B00F80AD900008E0FEA3CE
:10028200E08E82F58322E58290000CF012016890E4
:10029200000CE0FE7F008E828F83C007C006120131
:1002A2007212012590000AE0FD7C008D828C83127F
:1002B200017212012590000BE0FD7C008D828C837F
:1002C20012017212012512014112014DD006D0070E
:1002D20090000D7401F0E4A3F090000DE0F5F0A39E
:1002E200E045F0602CC007C006120168D006D007B6
:1002F2008E828F83C007C006120172E5828583F069
:1003020090000DF0E5F0A3F0120125D006D0078091
:10031200C8020141E582900010F0120168900010BD
:10032200E0FF7E008F828E83C007C0061201721228
:10033200012590000FE0FD7C008D828C83120172FA
:10034200120125120168D006D0070FBF00010E8FDF
:10035200828E8312017212021CAE82AF83C007C06A
:1003620006120210D006D0078E828F83120062120C
:10037200014190000A12006290000D120062020117
:100382004D12012C90000A7401F090000B7462F07F
:100392007582A012028890000A7402F090000B7419
:1003A20063F07582A01202881201689000A0120107
:1003B20072120125900001120172120125120168C8
:1003C2009000A112017212021CAE82AF83C007C05C
:1003D20006120201D006D0078E828F8312006212AB
:1003E200021CAE82AF83C007C006120210D006D034
:0E03F200078E828F8312006212014102038384
:06003500E478FFF6D8FD9F
:10040000AFF0AE83E582900011F0EEA3F0EFA3F021
:10041000900014E4F0A3F0900011E0FDA3E0FEA32F
:10042000E0FF8D828E838FF0120645FCBC20028097
:1004300003BC09120DBD00010E900011EDF0EEA3FA
:10044000F0EFA3F080DC900011EDF0EEA3F0EFA34D
:10045000F08D828E838FF0120645FC900016E4BC6E
:100460002D0104F0BC2D028003BC2B0E90001174F2
:10047000012DF0E43EA3F0EFA3F0900011E0FDA306
:10048000E0FEA3E0FF8D828E838FF0120645FCBC58
:100490003000405DEC24C64058900014E0FBA3E01F
:1004A000FC90001DEBF0ECA3F090000AC007C00622
:1004B000C005120625AB82AC83D005D006D0078DCF
:1004C000828E838FF0120645FAA3AD82AE83900030
:1004D00011EDF0EEA3F0EFA3F08A017A00E924D049
:1004E000F9EA34FFFA900014E92BF0EA3CA3F0801B
:1004F00094900011EDF0EEA3F0EFA3F0900016E061
:100500006011900014E0FEA3E0FFC3E49EFEE49FB0
:10051000FF8008900014E0FEA3E0FF8E828F83220C
:100013007900E94400601B7A00900665781F75A09B
:1000230000E493F2A308B8000205A0D9F4DAF2754C
:02003300A0FF2C
:10052000AFF0AE83E582900017F0EEA3F0EFA3F0FA
:1005300090001AE4F0A3F0120087AE82AF83BE08E9
:1005400002800DBE0A02805FBE0D02805A0205CFF6
:1005500090001AE0FDA3E0FF90001AE0F5F0A3E0A0
:1005600045F060D3900008C007C0051200629000FB
:1005700020120062900008120062D005D00790009F
:1005800017E024FFFAA3E034FFFBA3E0FC90001780
:10059000EAF0EBA3F0ECA3F01DBDFF011F90001AE1
:1005A000EDF0EFA3F0809090000D12006290000A31
:1005B000120062900017E0FCA3E0FDA3E0FF8C8234
:1005C0008D838FF0E412060A8C828D838FF0229047
:1005D0000017E0FCA3E0FDA3E0FF8C828D838FF089
:1005E000EE12060A90001774012CF0E43DA3F0EF20
:1005F000A3F090001AE02401F0A3E03400F07F00A3
:100600008E828F8312006202053720F71130F613B5
:100610008883A88220F509F6A8837583002280FECE
:10062000F280F5F022AA83AB828BF090001DE0A44B
:10063000F8A9F08AF0E0A429F98BF0A3E0A429F549
:050640008388822222E4
:10003B007800E84400600A790175A000E4F309D860
:10004B00FC781EE84400600C7901900001E4F0A3F9
:04005B00D8FCD9FAFA
:0D000600758107120661E5826003020003A8
:1006450020F71430F6148883A88220F507E6A883DE
:1006550075830022E280F7E49322E022758200226E
:00000001FF
