:2025C600AFF0AE83E582900001F0EEA3F0EFA3F0900001E0FDA3E0FEA3E0FF8D828E838F1A
:2025E600F0124344AE82AF83BE0105BF00028013BE0205BF00028030BE0305BF0002805C39
:202606000226A69000047430F0900005F0900001E0FDA3E0FEA3E0FF8D828E838FF01243D4
:202626005CFD900006F080789000047430F0900001E0FDA3E0FEA3E0FF8D828E838FF01273
:20264600435CFC900005F00DBD00010E8D828E838FF012435CFD900006F08044900001E073
:20266600FDA3E0FEA3E0FF8D828E838FF012435C900004F074012DFAE43EFB8F048A828B9D
:20268600838CF012435CFA900005F074022DFDE43EFE8D828E838FF012435CFD900006F072
:2026A600900008E4F0A3F07E007F00C3EE9403EF648094804003022C23EE2404F582EF34A5
:2026C60000F583E0FD7C008D828C83C007C0061238B1AC82AD83D006D007C3EC9431ED64AD
:2026E6008094805003022C1BC374469C74808DF063F08095F05003022C1BEC24CFFC240A1D
:2027060083F582EC241A83F583E4733D91E5398DE13589DD1B1B1B1B1B1B1B3185D92D814E
:20272600CF2727272828282929292C2C2C2C2C2C2C2A2A2A2B2B2BEE4F7012900008E0FCF6
:20274600A3E0FD900008ECF074012DA3F08E048F05BE0116BF0013900008E0FAA3E0FB90FD
:20276600000874102AF0E43BA3F0BC0205BD00028003022C1B900008E0FCA3E0FD90000821
:2027860074012CF0E43DA3F0022C1BEE4F7012900008E0FCA3E0FD900008ECF074022DA338
:2027A600F08E048F05BE0116BF0013900008E0FAA3E0FB90000874202AF0E43BA3F0BC02B0
:2027C60005BD00028003022C1B900008E0FCA3E0FD90000874022CF0E43DA3F0022C1BEE5A
:2027E6004F7012900008E0FCA3E0FD900008ECF074032DA3F08E048F05BE0116BF00139006
:202806000008E0FAA3E0FB90000874302AF0E43BA3F0BC0205BD00028003022C1B90000864
:20282600E0FCA3E0FD90000874032CF0E43DA3F0022C1BEE4F7012900008E0FCA3E0FD90CB
:202846000008ECF074042DA3F08E048F05BE0116BF0013900008E0FAA3E0FB90000874404D
:202866002AF0E43BA3F0BC0205BD00028003022C1B900008E0FCA3E0FD90000874042CF018
:20288600E43DA3F0022C1BEE4F7012900008E0FCA3E0FD900008ECF074052DA3F08E048FB4
:2028A60005BE0116BF0013900008E0FAA3E0FB90000874502AF0E43BA3F0BC0205BD0002CC
:2028C6008003022C1B900008E0FCA3E0FD90000874052CF0E43DA3F0022C1BEE4F701290B9
:2028E6000008E0FCA3E0FD900008ECF074062DA3F08E048F05BE0116BF0013900008E0FA81
:20290600A3E0FB90000874602AF0E43BA3F0BC0205BD00028003022C1B900008E0FCA3E0B6
:20292600FD90000874062CF0E43DA3F0022C1BEE4F7012900008E0FCA3E0FD900008ECF042
:2029460074072DA3F08E048F05BE0116BF0013900008E0FAA3E0FB90000874702AF0E43BC4
:20296600A3F0BC0205BD00028003022C1B900008E0FCA3E0FD90000874072CF0E43DA3F099
:20298600022C1BEE4F7012900008E0FCA3E0FD900008ECF074082DA3F08E048F05BE01168A
:2029A600BF0013900008E0FAA3E0FB90000874802AF0E43BA3F0BC0205BD00028003022CC4
:2029C6001B900008E0FCA3E0FD90000874082CF0E43DA3F0022C1BEE4F7012900008E0FC82
:2029E600A3E0FD900008ECF074092DA3F08E048F05BE0116BF0013900008E0FAA3E0FB9053
:202A0600000874902AF0E43BA3F0BC0205BD00028003022C1B900008E0FCA3E0FD900008FE
:202A260074092CF0E43DA3F0022C1BEE4F7012900008E0FCA3E0FD900008ECF0740A2DA385
:202A4600F08E048F05BE0116BF0013900008E0FAA3E0FB90000874A02AF0E43BA3F0BC028D
:202A660005BD00028003022C1B900008E0FCA3E0FD900008740A2CF0E43DA3F0022C1BEEAF
:202A86004F7012900008E0FCA3E0FD900008ECF0740B2DA3F08E048F05BE0116BF0013905B
:202AA6000008E0FAA3E0FB90000874B02AF0E43BA3F0BC0205BD00028003022C1B90000842
:202AC600E0FCA3E0FD900008740B2CF0E43DA3F0022C1BEE4F7012900008E0FCA3E0FD9021
:202AE6000008ECF0740C2DA3F08E048F05BE0116BF0013900008E0FAA3E0FB90000874C023
:202B06002AF0E43BA3F0BC0205BD00028003022C1B900008E0FCA3E0FD900008740C2CF06D
:202B2600E43DA3F0022C1BEE4F7012900008E0FCA3E0FD900008ECF0740D2DA3F08E048F09
:202B460005BE0116BF0013900008E0FAA3E0FB90000874D02AF0E43BA3F0BC0205BD0002A9
:202B66008003022C1B900008E0FCA3E0FD900008740D2CF0E43DA3F0022C1BEE4F7012900E
:202B86000008E0FCA3E0FD900008ECF0740E2DA3F08E048F05BE0116BF0013900008E0FAD6
:202BA600A3E0FB90000874E02AF0E43BA3F0BC0264BD0061900008E0FCA3E0FD9000087499
:202BC6000E2CF0E43DA3F0804CEE4F7012900008E0FCA3E0FD900008ECF0740F2DA3F08E4D
:202BE600048F05BE0116BF0013900008E0FAA3E0FB90000874F02AF0E43BA3F0BC0216BD47
:202C06000013900008E0FCA3E0FD900008740F2CF0E43DA3F00EBE00010F0226B19000086F
:092C2600E0FEA3E08E82F583229A
:202C2F00E58290000CF01230DC90000CE0FE7F008E828F83C007C0061230E6123099900039
:202C4F000AE0FD7C008D828C831230E612309990000BE0FD7C008D828C831230E6123099CC
:202C6F001230B51230C1D006D00790000D7401F0E4A3F090000DE0F5F0A3E045F0602CC0BF
:202C8F0007C0061230DCD006D0078E828F83C007C0061230E6E5828583F090000DF0E5F0F5
:202CAF00A3F0123099D006D00780C80230B5E582900010F01230DC900010E0FF7E008F8298
:202CCF008E83C007C0061230E612309990000FE0FD7C008D828C831230E61230991230DC0D
:202CEF00D006D0070FBF00010E8F828E831230E6123190AE82AF83C007C006123184123026
:202D0F00B51230C1D006D0078E828F8322E582900011F0747CC0E07443C0E07480C0E01276
:202D2F00393A15811581158190000075F00012367890000075F0001225C6AE82AF83C0077F
:202D4F00C006C006C0077492C0E07443C0E07480C0E012393AE58124FBF58174A0C0E074D8
:202D6F0043C0E07480C0E012393A15811581158190000075F00012367890000075F00012CA
:202D8F0025C6AC82AD83C005C004C004C0057492C0E07443C0E07480C0E012393AE5812429
:202DAF00FBF581D004D005D006D007C007C006C005C004C004C005C006C00774B7C0E074D2
:202DCF0043C0E07480C0E012393AE58124F9F581D004D005D006D007C007C006C005C00483
:202DEF00C004C005C006C00774BFC0E07443C0E07480C0E012393AE58124F9F581D004D0CE
:202E0F0005D006D007ECC39EFAED9FFBC007C006C005C004C002C00374D6C0E07443C0E047
:202E2F007480C0E012393AE58124FBF5811230DC9000FF1230E61231841230DC1230B512AC
:202E4F0030DC900011E0FB7A008B828A83C003C0021230E6123099D002D003D004D005D0A1
:202E6F0006D0078E828F83C007C006C005C004C003C0021230E61230991230DCD002D003E3
:202E8F00D004D005D006D0070BBB00010A8B828A83C007C006C005C0041230E6D004D005FB
:202EAF00D006D0077A007B00C3EE9CEF9D4003022FB89000367410F0E4A3F08A828B83C0D1
:202ECF0007C006C005C004C003C00212379DE5828583F0D002D003D004D005D006D0074583
:202EEF00F0705EC007C006C005C004C003C00274E9C0E07443C0E07480C0E012393A158167
:202F0F0015811581D002D003D004D005D006D007C007C006C005C004C003C002C006C00753
:202F2F0074ECC0E07443C0E07480C0E012393AE58124FBF581D002D003D004D005D006D023
:202F4F0007C007C006C005C004C003C002123190A882A983C001C000123175D000D001D0ED
:202F6F0002D003D004D005D006D0070ABA00010BC007C006C005C004C003C002C000C0012B
:202F8F0074F1C0E07443C0E07480C0E012393AE58124FBF581D002D003D004D005D006D0BE
:202FAF00070EBE00010F022EB7C007C006C003C002123190AC82AD83D002D003C005C004C7
:202FCF00C003C0021231841230B5D002D003D004D005D006D0070ABA00010B90003674108A
:202FEF00F0E4A3F08A828B83C007C006C005C00412379DE5828583F0D004D005D006D00790
:20300F0045F07046C007C006C005C00474E9C0E07443C0E07480C0E012393A1581158115F2
:20302F0081D004D005D006D007C005C004C006C00774F6C0E07443C0E07480C0E012393A1A
:20304F00E58124FBF581D004D005C004C00574F1C0E07443C0E07480C0E012393AE5812435
:20306F00FBF58174E9C0E07443C0E07480C0E012393A1581158115811230DC9000FF1230B2
:0A308F00E61231841230DC0230B585
:20437C00456E74657220666972737420616464726573730A0D002561646472657373203162
:20439C00640A0D00456E746572207365636F6E6420616464726573730A0D0025642025649D
:2043BC000A0D00537461727465723A20256420456E6465722025640A0D00646966666572C4
:1E43DC00656E63652069732025640A0D000A0D002533583A00202558200025583A00F7
:20309900740314B400FC22C294C295D295D294023099C295123099C294023099C295D29465
:2030B900123099D2950230997E207F03EE4F6012C007C006123099D006D0071EBEFF011F0B
:2030D90080EA22D294C295123099C29422AF83E582900012F0EFA3F07E007F00C3EE940844
:2030F900EF648094805057900012E0FCA3E0EC30E713D295D294C007C006123099D006D037
:2031190007C2948011C295D294C007C006123099D006D007C294C007C006123099D006D072
:2031390007900012E0FCA3E0FDEC2CFCED33FD900012ECF0EDA3F00EBE00A10F809ED29541
:2031590000D294A295E433FE7F00C007C006123099D006D007C2948E828F8322C2951230DD
:2031790099D294123099C294D29522D294123099D295C294023099900014E4F0A3F0D29542
:203199007E007F00C3EE9408EF648094805048900014E0FCA3E0FDEC2CFCED33FD90001478
:2031B900ECF0EDA3F0D294C007C006123099900014E0FCA3E0FDA295E433FA7B0090001465
:2031D900EA4CF0EB4DA3F0C294123099D006D0070EBE00B00F80AD900014E0FEA3E08E823A
:0331F900F5832239
:0325640002256AE3
:0325C30002256787
:0325670002342A11
:2031FC00AF83E582900016F0EFA3F03099FD3099FDE59830E1FB900016E0FEA3E08E99C2FD
:20321C0099900000223098FDE59830E0FB10980280FBAE997F008E828F8322AFF0AE83E516
:20323C0082900018F0EEA3F0EFA3F0900018E0FDA3E0FEA3E0FF7B007C008D828E838FF037
:20325C0012435CFA60360DBD00010E900018EDF0EEA3F0EFA3F08A017A0089828A83C007CC
:20327C00C006C005C004C0031231FCD003D004D005D006D0070BBB00C10C80BE900018ED52
:20329C00F0EEA3F0EFA3F00BBB00010C8B828C832290000075F00012367890000075F00064
:2032BC00023558AFF0AE83E58290001DF0EEA3F0EFA3F090001DE0FDA3E0FEA3E0FF8D82F0
:2032DC008E838FF01225C6AE82AF83740E5FFDFB7C00C007C006C005C003C00474FAC0E0A7
:2032FC007443C0E07480C0E012393AE58124FBF581D005D006D007BD0800502D900078E09B
:20331C004DF0E0FD7C00C007C006C005C004740CC0E07444C0E07480C0E012393AE58124CA
:20333C00FBF581D006D007800990441975F08002323790442F75F080C006123237900020B4
:20335C0075F00012367890002075F0001225C6AD8290002075F000C005123237D005D006EB
:20337C00900078E0FF90000AEEF090000BEDF08F82022C2FAFF0AE83E582900024F0EEA380
:20339C00F0EFA3F0900024E0FDA3E0FEA3E0FF8D828E838FF01225C6AE82AF83C007C00680
:2033BC00900024E0C0E0A3E0C0E0A3E0C0E0744AC0E07444C0E07480C0E012393AE581241E
:2033DC00FAF581D006D007740E5FFDBD07005008900078E04DF080069000797401F0900011
:2033FC0079E0600D90445D75F08012323790FFFF22900078E0FF90000FEEF08F82122CBD3A
:20341C00AE82AF83900079E4F08E828F83221230A0900079E4F090447475F0801232371294
:20343C003221AE82AF8390001BEEF0EFA3F08E828F831231FC90450B75F08012323790007F
:20345C001BE0FEA3E0FF8E828F831238B1AE82AF83BE5205BF00028056BE5306BF000302CF
:20347C003534BE5705BF0002800BBE5806BF0003023543809C90450E75F08012323790001A
:20349C007AE0FDA3E0FEA3E0FF8D828E838FF012367890007AE0FDA3E0FEA3E0FF8D828ED0
:2034BC00838FF01232BF90007874A0F002342D90457B75F08012323790007AE0FDA3E0FE64
:2034DC00A3E0FF8D828E838FF012367890007AE0FDA3E0FEA3E0FF8D828E838FF012339091
:2034FC00AE82AF83900027EEF0900079E07020900027E0FF7E00C007C00674E4C0E07445EE
:20351C00C0E07480C0E012393AE58124FBF58190007874A0F002342D7582A0122D1C9000EA
:1C353C007874A0F002342D1230DC9000FF1230E61231841230DC1230B502342D80
:2043FA00626C6F636B206E6F2E2069732025640A0D00636F6E74726F6C2025580A0D000AF2
:20441A000D496E76616C696420626C6F636B206E6F2E0A0D00456E74657220646174612069
:20443A00746F206265207772697474656E0A0D00257320696E707574206164647265737366
:20445A000A0D0057726F6E6720626C6F636B206E756D6265722E200A0D002A2A2A2A2A2AE9
:20447A002A2A2A2A2A2A2A2A2A2A2A0A0D4D454E5520464F522054455354494E4720493228
:20449A00432046554E4354494F4E530A0D5052455353205720464F522057524954452042B7
:2044BA005954450A0D5052455353205220464F522052414E444F4D20524541440A0D5052FD
:2044DA00455353205320464F52204845582044554D500A0D0A0D5052455353205820464F1A
:2044FA005220454550524F4D2052455345540A0D000A0D00454E5445522041444452455346
:20451A005320544F204245205752495454454E202C4144445245535320494E434C55444501
:20453A005320424C4F434B204E554D42455220414E4420574F5244204144525245535320F7
:20455A00544F47455448455220534550455241544544204259203020696E204845580A0D04
:20457A0000454E544552204144445245535320544F20424520524541442C414444524553F8
:20459A005320494E434C5544455320424C4F434B204E554D42455220414E4420574F524474
:2045BA00204144525245535320544F47455448455220534550455241544544204259203063
:1F45DA0020696E204845580A0D00526561642076616C756520697320307825580A0D009E
:05460400A00000000011
:06259900E478FFF6D8FD16
:20355800AFF0AE83E582900028F0EEA3F0EFA3F090002BE4F0A3F0900028E0FDA3E0FEA396
:20357800E0FF8D828E838FF012435CFCBC20028003BC09120DBD00010E900028EDF0EEA3D1
:20359800F0EFA3F080DC900028EDF0EEA3F0EFA3F08D828E838FF012435CFC90002DE4BC04
:2035B8002D0104F0BC2D028003BC2B0E90002874012DF0E43EA3F0EFA3F0900028E0FDA3B5
:2035D800E0FEA3E0FF8D828E838FF012435CFCBC3000405DEC24C6405890002BE0FBA3E017
:2035F800FC900034EBF0ECA3F090000AC007C006C00512377DAB82AC83D005D006D0078D7C
:20361800828E838FF012435CFAA3AD82AE83900028EDF0EEA3F0EFA3F08A017A00E924D058
:20363800F9EA34FFFA90002BE92BF0EA3CA3F08094900028EDF0EEA3F0EFA3F090002DE0A1
:20365800601190002BE0FEA3E0FFC3E49EFEE49FFF800890002BE0FEA3E0FF8E828F83221A
:202577007905E94400601B7A01904604787875A000E493F2A308B8000205A0D9F4DAF27543
:02259700A0FFA3
:20367800AFF0AE83E58290002EF0EEA3F0EFA3F0900031E4F0A3F0123221AE82AF83BE0895
:2036980002800DBE0A02805FBE0D02805A023727900031E0FDA3E0FF900031E0F5F0A3E0AA
:2036B80045F060D3900008C007C0051231FC9000201231FC9000081231FCD005D007900025
:2036D8002EE024FFFAA3E034FFFBA3E0FC90002EEAF0EBA3F0ECA3F01DBDFF011F90003128
:2036F800EDF0EFA3F0809090000D1231FC90000A1231FC90002EE0FCA3E0FDA3E0FF8C82E4
:203718008D838FF0E41237628C828D838FF02290002EE0FCA3E0FDA3E0FF8C828D838FF07B
:20373800EE12376290002E74012CF0E43DA3F0EFA3F0900031E02401F0A3E03400F07F0077
:0A3758008E828F831231FC02368F3F
:1B37620020F71130F6138883A88220F509F6A8837583002280FEF280F5F02266
:20377D00AA83AB828BF0900034E0A4F8A9F08AF0E0A429F98BF0A3E0A429F58388822222CD
:20379D00AF83E582900038F0EFA3F0900038E0FEA3E0FF30E709C3E49EFCE49FFD80048E1E
:2037BD00048F05900036E0FEA3E0FF30E709C3E49EFAE49FFB80048E028F0390003AEAF007
:2037DD00EBA3F08C828D83123805AE82AF83900038E0A3E030E70CC3E49EFCE49FFD8C8262
:0837FD008D83228E828F83224E
:20380500AF83E58290003CF0EFA3F090003EE4F090003CE0FEA3E0FF7D0090003AE0FBA339
:20382500E0FC235401FA7036EB2BFBEC33FC90003AEBF0ECA3F090003AE0FBA3E0FCC3EE6A
:203845009BEF9C5011ECC313CB13CBFC90003AEBF0ECA3F080080D90003EEDF080BC900045
:203865003EE0FF90003CE0FDA3E0FE90003AE0FBA3E0FCC3ED9BEE9C400B90003CEDC39BA1
:20388500F0EE9CA3F090003AE0FDA3E0C313CD13CDFE90003AEDF0EEA3F08F061FEE70C36E
:0C38A50090003CE0FEA3E08E82F5832240
:20259F007800E84400600A790175A000E4F309D8FC7877E84400600C7901900001E4F0A3C2
:0425BF00D8FCD9FA71
:2038B100AF83E58290003FF0EFA3F090003FE0FEA3E0BE61004017EE2485401290003FE0DF
:1B38D100FEA3E0FF74E02EFE74FF3FFF800890003FE0FEA3E0FF8E828F832230
:2038EC00C0128581127E008E831231FCD01222AFF0AE83E582900042F0EEA3F0EFA3F09074
:20390C000042E0FDA3E0FEA3E0FF900041E0FC900056E4F0A3F0A3F0900059EDF0EEA3F0A5
:20392C00EFA3F090005CECF09038EC023A43C012E581F51224FBFF900056E4F0A3F0A3F0C1
:20394C00E51224FBF8900059E6F008E6A3F008E6A3F090005CEFF09038EC123A43D012227A
:20396C00E582900052F0E0FF900048E0C0E0A3E0C0E0A3E0C0E0123987800D900046E0C0B0
:20398C00E0A3E0C0E08F8222158115811581900050E02401F0A3E03400F022E5829000533B
:2039AC00F0E02430FF24C6500D74072FFF900045E060034307208F8202396CE58290005463
:2039CC00F0E0FFC4540FF582C0071239A7D00753070F8F820239A7E582900055F090004B6B
:2039EC00E0FCA3E0FDA3E0FEA3E0FF90004FE0FB751320900055E0F98B00E828F8EF235443
:203A0C000148FBEC2CFCED33FDEE33FEEF33FFC3EB994007EBC399FB430401E51314FA8A3D
:203A2C001370D590004BECF0EDA3F0EEA3F0EFA3F090004FEBF022AF83E58290005DF0EFA7
:203A4C00A3F090005DE0FEA3E0FF900046EEF0EFA3F0900056E0FDA3E0FEA3E0FF900048A6
:203A6C00EDF0EEA3F0EFA3F0900050E4F0A3F0900059E0FDA3E0FEA3E0FF8D828E838FF0AB
:203A8C0012435CFC90005974012DF0E43EA3F0EFA3F0EC7003024338BC2502800302433004
:203AAC0090005FE4F0900060F0900061F0900062F0900063F0900064F0900065F0900066F2
:203ACC00F0900068F0900069F0A3F090006B14F0A3F0900059E0FDA3E0FEA3E0FF8D828E8E
:203AEC00838FF012435CFBA3AD82AE83900059EDF0EEA3F0EFA3F090006FEBF0BB25088BF3
:203B0C008212396C023A7BBB30005003023BDCEB24C65003023BDC90006BE0F508A3E0F5C1
:203B2C000974FFB50863B50960C005C006C007900069E0FAA3E0FF900034EAF0EFA3F09068
:203B4C00000AC005C00312377DAE82AF83D003D0058B027D00EA2EFEED3FFFEE24D0FEEFDD
:203B6C0034FFFF900069EEF0EFA3F0D007D006D005900069E0F5F0A3E045F06003023AE92E
:203B8C009000607401F0023AE9C005C006C007900034E508F0E509A3F090000AC006C00506
:203BAC00C00312377DAA82AF83D003D005D0067E00EB2AFAEE3FFFEA24D0FAEF34FFFF9052
:203BCC00006BEAF0EFA3F0D007D006D005023AE990006FE0FBBB2E2FC005C006C007900097
:203BEC006BE0FAA3E0FFBAFF05BFFF028009D007D006D005023AE9D007D006D00590006BC7
:203C0C00E4F0A3F0023AE9BB61004014EB2485400F90006F74DF5BF09000457401F080055D
:203C2C00900045E4F090006FE0FBBB20028075BB2B028067BB2D028059BB4202806FBB43A5
:203C4C0002807CBB4403023ED3BB4603023EF9BB4803023AE9BB4903023ED3BB4A03023A7F
:203C6C00E9BB4C028050BB4F03023EE1BB5003023E41BB53028077BB5403023AE9BB550368
:203C8C00023EE9BB5803023EF1BB5A03023AE9023F0190005F7401F0023AE990006174014A
:203CAC00F0023AE99000627401F0023AE99000647401F0023AE99000657401F0023AE990DA
:203CCC000064E0600E90005CE014F9F090006FE7F0800F90005CE024FEFFF08F0190006F8C
:203CEC00E7F090006FE0F58212396C023F1090005CE024FDFFF08F0187050987060987075E
:203D0C00191990004BEDF0EEA3F0EFA3F08D828E838FF012434485820885830990006BE077
:203D2C00FAA3E0FDBAFF0DBDFF0A90006BE508F0E509A3F090005FE0704B900069E0FAA318
:203D4C00E0FDC3E5089AE5099D503A900069EAC39508F0ED9509A3F0900069E0FAA3E0FD77
:203D6C008A068D071ABAFF011DEE4F6010758220C005C00212396CD002D00580E39000691D
:203D8C00EAF0EDA3F090006BE0F50BA3E0F50C90004BE0FAA3E0FDA3E0FF8A828D838FF00C
:203DAC0012435CF50A603CC3E4950B7480850CF063F08095F0502C150B74FFB50B02150CA5
:203DCC00850A8212396C90004BE0FAA3E0FDA3E0FF0ABA00010D90004BEAF0EDA3F0EFA3BF
:203DEC00F080AC90005FE07003023F10900069E0FEA3E0FFC3E5089EE5099F4003023F1040
:203E0C00900069EEC39508F0EF9509A3F0900069E0FEA3E0FF8E028F051EBEFF011FEA4D90
:203E2C007003023F08758220C007C00612396CD006D00780E090005CE024FDFDF08D018763
:203E4C000D09870E09870F191990004BE50DF0E50EA3F0E50FA3F090004DE0FDBD800040D9
:203E6C000890006F7443F08020BD6000400890006F7450F08013BD4000400890006F74493C
:203E8C00F0800690006F7458F090006FE0FDF582C00512396C75823A12396C7582301239BC
:203EAC006C75827812396CD005BD4902800EBD5002800990004CE0F5821239C790004BE061
:203ECC00F5821239C7803D9000637401F0900068740AF0802F9000687408F0802790006820
:203EEC00740AF0801F9000687410F080179000667401F0800F8B8212396C8008900069EE89
:203F0C00F0EFA3F0900066E0607190005CE024FCFFF08F01870309870509870609870719AC
:203F2C00191990004BEBF0EDA3F0EEA3F0EFA3F090004B74F9F07445A3F07480A3F090006F
:203F4C004BE0F50DA3E0F50EA3E0F50F7401250DFAE4350EFBAF0F90004BEAF0EBA3F0EF78
:203F6C00A3F0850D82850E83850FF012435CFF7003023A7B8F8212396C80C3900068E070C7
:203F8C0003023A7B900064E0604790005CE014F9F087077E007D007B0090004BEFF0EEA3C8
:203FAC00F0EDA3F0EBA3F0900063E0600302405390004BE0FBA3E0A3E0A3E07D007E007F83
:203FCC000090004BEBF0EDA3F0EEA3F0EFA3F08076900065E0602890005CE024FCFFF08FDF
:203FEC0001870309870509870609870719191990004BEBF0EDA3F0EEA3F0EFA3F08048908C
:20400C00005CE024FEFFF08F01870609870719EF3395E0FDFB90004BEEF0EFA3F0EDA3F030
:20402C00EBA3F0900063E0701E90004BE0FBA3E0FDA3E0A3E07E007F0090004BEBF0EDA316
:20404C00F0EEA3F0EFA3F0900063E0604190004BE0FBA3E0FDA3E0FEA3E0FF30E72B9000E2
:20406C004BE0FBA3E0FDA3E0FEA3E0FFC3E49BFBE49DFDE49EFEE49FFF90004BEBF0EDA388
:20408C00F0EEA3F0EFA3F08005900063E4F09000677401F0900068E0F50B75107575110021
:2040AC00E4F508F50990004FE4F0850B821239E3900067E0702690004FE0C4F50D85108219
:2040CC00851183E0FFE50D4207851082851183EFF0151074FFB510021511800C90004FE0C2
:2040EC00FF851082851183F00508E4B508020509900067E0B40100E433F090004BE0FAA3EC
:20410C00E0FBA3E0FEA3E0FFEA4B4E4F7097900076E510F0E511A3F090006DE508F0E509A0
:20412C00A3F0900069E0F5F0A3E045F070099000697401F0E4A3F0900060E0FFE070479026
:20414C00005FE07041850810850911900069E0FAA3E0FBC007AF100F8F067F00C3EE9AEFF3
:20416C009BD0075019758220C007C003C00212396CD002D003D0071ABAFF011B80D59000EE
:20418C0069EAF0EBA3F0900063E0602075822DC00712396CD007900069E024FFFDA3E034D6
:2041AC00FFFE900069EDF0EEA3F0805690006DE0F5F0A3E045F0604A900061E0602075825D
:2041CC002BC00712396CD007900069E024FFFDA3E034FFFE900069EDF0EEA3F0802490001B
:2041EC0062E0601E758220C00712396CD007900069E024FFFDA3E034FFFE900069EDF0EE16
:20420C00A3F090005FE0704890006DE0F510A3E0F511900069E0FAA3E0FBC0078A068B07D3
:20422C001ABAFF011BC3E5109EE5119FD0075053EF60067D307E0080047D207E008D82C030
:20424C0007C003C00212396CD002D003D00780CA900069E0FEA3E0FF90006DE0F510A3E08B
:20426C00F511C3E5109EE5119F500F900069EEC39510F0EF9511A3F08011900069E4F0A37A
:20428C00F08008900069EAF0EBA3F0900076E0FEA3E0FF90006DE0F510A3E0F511AA10AD11
:2042AC0011151074FFB510021511EA4D6045900067E0B40100E433F0900067E070140EBEC6
:2042CC0000010F8E828F83E0C4540FFD90004FF0800E8E828F83E0FD53050F90004FEDF01D
:2042EC0090004FE0F582C007C0061239A7D006D00780AA90005FE07003023A7B900069E054
:20430C00FEA3E0FF8E038F051EBEFF011FEB4D7003023A7B758220C007C00612396CD0065E
:18432C00D00780E08C8212396C023A7B900050E0FEA3E08E82F58322DB
:0B45F9003C4E4F20464C4F41543E000A
:18434400AA82AB8312435C6003A380F8C3E5829AF582E5839BF5832200
:0D256A00758113124378E582600302256736
:1C435C0020F71430F6148883A88220F507E6A88375830022E280F7E49322E02270
:044378007582002228
:00000001FF
